{
  "contractName": "DisasterRiskInsurance",
  "abi": [
    {
      "constant": true,
      "inputs": [],
      "name": "resultReceived",
      "outputs": [
        {
          "name": "",
          "type": "bool"
        }
      ],
      "payable": false,
      "stateMutability": "view",
      "type": "function"
    },
    {
      "constant": true,
      "inputs": [],
      "name": "result",
      "outputs": [
        {
          "name": "",
          "type": "bool"
        }
      ],
      "payable": false,
      "stateMutability": "view",
      "type": "function"
    },
    {
      "constant": false,
      "inputs": [],
      "name": "renounceOwnership",
      "outputs": [],
      "payable": false,
      "stateMutability": "nonpayable",
      "type": "function"
    },
    {
      "constant": true,
      "inputs": [],
      "name": "owner",
      "outputs": [
        {
          "name": "",
          "type": "address"
        }
      ],
      "payable": false,
      "stateMutability": "view",
      "type": "function"
    },
    {
      "constant": true,
      "inputs": [],
      "name": "totalBetFalse",
      "outputs": [
        {
          "name": "",
          "type": "uint256"
        }
      ],
      "payable": false,
      "stateMutability": "view",
      "type": "function"
    },
    {
      "constant": false,
      "inputs": [
        {
          "name": "_newOwner",
          "type": "address"
        }
      ],
      "name": "transferOwnership",
      "outputs": [],
      "payable": false,
      "stateMutability": "nonpayable",
      "type": "function"
    },
    {
      "constant": true,
      "inputs": [],
      "name": "totalBetTrue",
      "outputs": [
        {
          "name": "",
          "type": "uint256"
        }
      ],
      "payable": false,
      "stateMutability": "view",
      "type": "function"
    },
    {
      "inputs": [
        {
          "name": "_link",
          "type": "address"
        },
        {
          "name": "_oracle",
          "type": "address"
        },
        {
          "name": "_jobId",
          "type": "bytes32"
        },
        {
          "name": "_oraclePaymentAmount",
          "type": "uint256"
        }
      ],
      "payable": false,
      "stateMutability": "nonpayable",
      "type": "constructor"
    },
    {
      "anonymous": false,
      "inputs": [
        {
          "indexed": true,
          "name": "previousOwner",
          "type": "address"
        }
      ],
      "name": "OwnershipRenounced",
      "type": "event"
    },
    {
      "anonymous": false,
      "inputs": [
        {
          "indexed": true,
          "name": "previousOwner",
          "type": "address"
        },
        {
          "indexed": true,
          "name": "newOwner",
          "type": "address"
        }
      ],
      "name": "OwnershipTransferred",
      "type": "event"
    },
    {
      "anonymous": false,
      "inputs": [
        {
          "indexed": true,
          "name": "id",
          "type": "bytes32"
        }
      ],
      "name": "ChainlinkRequested",
      "type": "event"
    },
    {
      "anonymous": false,
      "inputs": [
        {
          "indexed": true,
          "name": "id",
          "type": "bytes32"
        }
      ],
      "name": "ChainlinkFulfilled",
      "type": "event"
    },
    {
      "anonymous": false,
      "inputs": [
        {
          "indexed": true,
          "name": "id",
          "type": "bytes32"
        }
      ],
      "name": "ChainlinkCancelled",
      "type": "event"
    },
    {
      "constant": false,
      "inputs": [
        {
          "name": "betOutcome",
          "type": "bool"
        }
      ],
      "name": "bet",
      "outputs": [],
      "payable": true,
      "stateMutability": "payable",
      "type": "function"
    },
    {
      "constant": false,
      "inputs": [],
      "name": "withdraw",
      "outputs": [],
      "payable": false,
      "stateMutability": "nonpayable",
      "type": "function"
    },
    {
      "constant": false,
      "inputs": [],
      "name": "requestResultOfDisasterRisk",
      "outputs": [
        {
          "name": "requestId",
          "type": "bytes32"
        }
      ],
      "payable": false,
      "stateMutability": "nonpayable",
      "type": "function"
    },
    {
      "constant": true,
      "inputs": [
        {
          "name": "outcome",
          "type": "bool"
        }
      ],
      "name": "getBetAmount",
      "outputs": [
        {
          "name": "betAmount",
          "type": "uint256"
        }
      ],
      "payable": false,
      "stateMutability": "view",
      "type": "function"
    },
    {
      "constant": false,
      "inputs": [
        {
          "name": "_requestId",
          "type": "bytes32"
        },
        {
          "name": "data",
          "type": "int256"
        }
      ],
      "name": "fulfill",
      "outputs": [],
      "payable": false,
      "stateMutability": "nonpayable",
      "type": "function"
    }
  ],
  "bytecode": "0x6080604052600160045534801561001557600080fd5b50604051608080611b6e8339810180604052810190808051906020019092919080519060200190929190805190602001909291908051906020019092919050505033600660006101000a81548173ffffffffffffffffffffffffffffffffffffffff021916908373ffffffffffffffffffffffffffffffffffffffff1602179055506100af846100e2640100000000026401000000009004565b6100c783610126640100000000026401000000009004565b81600c816000191690555080600b819055505050505061016a565b80600260006101000a81548173ffffffffffffffffffffffffffffffffffffffff021916908373ffffffffffffffffffffffffffffffffffffffff16021790555050565b80600360006101000a81548173ffffffffffffffffffffffffffffffffffffffff021916908373ffffffffffffffffffffffffffffffffffffffff16021790555050565b6119f5806101796000396000f3006080604052600436106100ba576000357c0100000000000000000000000000000000000000000000000000000000900463ffffffff1680633ccfd60b146100bf5780634cd38cc2146100d6578063523afb0d146101055780636537214714610127578063715018a6146101565780638da5cb5b1461016d578063bda71d04146101c4578063c3eddc43146101ff578063cdf90f4514610232578063daea25f11461025d578063f2fde38b146102a0578063ffde2dc7146102e3575b600080fd5b3480156100cb57600080fd5b506100d461030e565b005b3480156100e257600080fd5b506100eb610595565b604051808215151515815260200191505060405180910390f35b6101256004803603810190808035151590602001909291905050506105a8565b005b34801561013357600080fd5b5061013c61071c565b604051808215151515815260200191505060405180910390f35b34801561016257600080fd5b5061016b61072f565b005b34801561017957600080fd5b50610182610834565b604051808273ffffffffffffffffffffffffffffffffffffffff1673ffffffffffffffffffffffffffffffffffffffff16815260200191505060405180910390f35b3480156101d057600080fd5b506101fd60048036038101908080356000191690602001909291908035906020019092919050505061085a565b005b34801561020b57600080fd5b50610214610a33565b60405180826000191660001916815260200191505060405180910390f35b34801561023e57600080fd5b50610247610c32565b6040518082815260200191505060405180910390f35b34801561026957600080fd5b5061028a600480360381019080803515159060200190929190505050610c38565b6040518082815260200191505060405180910390f35b3480156102ac57600080fd5b506102e1600480360381019080803573ffffffffffffffffffffffffffffffffffffffff169060200190929190505050610ccf565b005b3480156102ef57600080fd5b506102f8610d37565b6040518082815260200191505060405180910390f35b600d60009054906101000a900460ff1615156103b8576040517f08c379a00000000000000000000000000000000000000000000000000000000081526004018080602001828103825260388152602001807f596f752063616e6e6f74207769746864726177206265666f726520746865207281526020017f6573756c7420686173206265656e2072656365697665642e000000000000000081525060400191505060405180910390fd5b600d60019054906101000a900460ff16156104b2573373ffffffffffffffffffffffffffffffffffffffff166108fc600954600760003373ffffffffffffffffffffffffffffffffffffffff1673ffffffffffffffffffffffffffffffffffffffff16815260200190815260200160002054600a54600954010281151561043b57fe5b049081150290604051600060405180830381858888f19350505050158015610467573d6000803e3d6000fd5b506000600760003373ffffffffffffffffffffffffffffffffffffffff1673ffffffffffffffffffffffffffffffffffffffff16815260200190815260200160002081905550610593565b3373ffffffffffffffffffffffffffffffffffffffff166108fc600a54600860003373ffffffffffffffffffffffffffffffffffffffff1673ffffffffffffffffffffffffffffffffffffffff16815260200190815260200160002054600a54600954010281151561052057fe5b049081150290604051600060405180830381858888f1935050505015801561054c573d6000803e3d6000fd5b506000600860003373ffffffffffffffffffffffffffffffffffffffff1673ffffffffffffffffffffffffffffffffffffffff168152602001908152602001600020819055505b565b600d60009054906101000a900460ff1681565b600d60009054906101000a900460ff16151515610653576040517f08c379a00000000000000000000000000000000000000000000000000000000081526004018080602001828103825260328152602001807f596f752063616e6e6f74206265742061667465722074686520726573756c742081526020017f686173206265656e2072656365697665642e000000000000000000000000000081525060400191505060405180910390fd5b80156106bb5734600760003373ffffffffffffffffffffffffffffffffffffffff1673ffffffffffffffffffffffffffffffffffffffff1681526020019081526020016000206000828254019250508190555034600960008282540192505081905550610719565b34600860003373ffffffffffffffffffffffffffffffffffffffff1673ffffffffffffffffffffffffffffffffffffffff1681526020019081526020016000206000828254019250508190555034600a600082825401925050819055505b50565b600d60019054906101000a900460ff1681565b600660009054906101000a900473ffffffffffffffffffffffffffffffffffffffff1673ffffffffffffffffffffffffffffffffffffffff163373ffffffffffffffffffffffffffffffffffffffff1614151561078b57600080fd5b600660009054906101000a900473ffffffffffffffffffffffffffffffffffffffff1673ffffffffffffffffffffffffffffffffffffffff167ff8df31144d9c2f0f6b59d69b8b98abd5459d07f2742c4df920b25aae33c6482060405160405180910390a26000600660006101000a81548173ffffffffffffffffffffffffffffffffffffffff021916908373ffffffffffffffffffffffffffffffffffffffff160217905550565b600660009054906101000a900473ffffffffffffffffffffffffffffffffffffffff1681565b8160056000826000191660001916815260200190815260200160002060009054906101000a900473ffffffffffffffffffffffffffffffffffffffff1673ffffffffffffffffffffffffffffffffffffffff163373ffffffffffffffffffffffffffffffffffffffff1614151561095f576040517f08c379a00000000000000000000000000000000000000000000000000000000081526004018080602001828103825260288152602001807f536f75726365206d75737420626520746865206f7261636c65206f662074686581526020017f207265717565737400000000000000000000000000000000000000000000000081525060400191505060405180910390fd5b60056000826000191660001916815260200190815260200160002060006101000a81549073ffffffffffffffffffffffffffffffffffffffff021916905580600019167f7cc135e0cebb02c3480ae5d74d377283180a2601f8f644edf7987b009316c63a60405160405180910390a26001600d60006101000a81548160ff0219169083151502179055506006821415610a12576001600d60016101000a81548160ff021916908315150217905550610a2e565b6000600d60016101000a81548160ff0219169083151502179055505b505050565b6000610a3d611927565b600d60009054906101000a900460ff16151515610ae8576040517f08c379a00000000000000000000000000000000000000000000000000000000081526004018080602001828103825260258152602001807f54686520726573756c742068617320616c7265616479206265656e207265636581526020017f697665642e00000000000000000000000000000000000000000000000000000081525060400191505060405180910390fd5b610b18600c543063bda71d047c010000000000000000000000000000000000000000000000000000000002610d3d565b9050610b996040805190810160405280600281526020017f69700000000000000000000000000000000000000000000000000000000000008152506040805190810160405280600e81526020017f3139342e3139392e3130342e313400000000000000000000000000000000000081525083610d6e9092919063ffffffff16565b610c186040805190810160405280600881526020017f636f7079506174680000000000000000000000000000000000000000000000008152506040805190810160405280600e81526020017f636f6e6e656374696f6e2e69737000000000000000000000000000000000000081525083610d6e9092919063ffffffff16565b610c2c610c23610da1565b82600b54610dcb565b91505090565b600a5481565b60008115610c8757600760003373ffffffffffffffffffffffffffffffffffffffff1673ffffffffffffffffffffffffffffffffffffffff168152602001908152602001600020549050610cca565b600860003373ffffffffffffffffffffffffffffffffffffffff1673ffffffffffffffffffffffffffffffffffffffff1681526020019081526020016000205490505b919050565b600660009054906101000a900473ffffffffffffffffffffffffffffffffffffffff1673ffffffffffffffffffffffffffffffffffffffff163373ffffffffffffffffffffffffffffffffffffffff16141515610d2b57600080fd5b610d3481611157565b50565b60095481565b610d45611927565b610d4d611927565b610d6485858584611253909392919063ffffffff16565b9150509392505050565b610d8582846080015161130d90919063ffffffff16565b610d9c81846080015161130d90919063ffffffff16565b505050565b6000600360009054906101000a900473ffffffffffffffffffffffffffffffffffffffff16905090565b600030600454604051602001808373ffffffffffffffffffffffffffffffffffffffff1673ffffffffffffffffffffffffffffffffffffffff166c01000000000000000000000000028152601401828152602001925050506040516020818303038152906040526040518082805190602001908083835b602083101515610e675780518252602082019150602081019050602083039250610e42565b6001836020036101000a038019825116818451168082178552505050505050905001915050604051809103902090506004548360600181815250508360056000836000191660001916815260200190815260200160002060006101000a81548173ffffffffffffffffffffffffffffffffffffffff021916908373ffffffffffffffffffffffffffffffffffffffff16021790555080600019167fb5e6e01e79f91267dc17b4e6314d5d4d03593d2ceee0fbb452b750bd70ea5af960405160405180910390a2600260009054906101000a900473ffffffffffffffffffffffffffffffffffffffff1673ffffffffffffffffffffffffffffffffffffffff16634000aea08584610f7687611332565b6040518463ffffffff167c0100000000000000000000000000000000000000000000000000000000028152600401808473ffffffffffffffffffffffffffffffffffffffff1673ffffffffffffffffffffffffffffffffffffffff16815260200183815260200180602001828103825283818151815260200191508051906020019080838360005b83811015611019578082015181840152602081019050610ffe565b50505050905090810190601f1680156110465780820380516001836020036101000a031916815260200191505b50945050505050602060405180830381600087803b15801561106757600080fd5b505af115801561107b573d6000803e3d6000fd5b505050506040513d602081101561109157600080fd5b8101908080519060200190929190505050151561113c576040517f08c379a00000000000000000000000000000000000000000000000000000000081526004018080602001828103825260238152602001807f756e61626c6520746f207472616e73666572416e6443616c6c20746f206f726181526020017f636c65000000000000000000000000000000000000000000000000000000000081525060400191505060405180910390fd5b60016004600082825401925050819055508090509392505050565b600073ffffffffffffffffffffffffffffffffffffffff168173ffffffffffffffffffffffffffffffffffffffff161415151561119357600080fd5b8073ffffffffffffffffffffffffffffffffffffffff16600660009054906101000a900473ffffffffffffffffffffffffffffffffffffffff1673ffffffffffffffffffffffffffffffffffffffff167f8be0079c531659141344cd1fd0a4f28419497f9722a3daafe3b4186f6b6457e060405160405180910390a380600660006101000a81548173ffffffffffffffffffffffffffffffffffffffff021916908373ffffffffffffffffffffffffffffffffffffffff16021790555050565b61125b611927565b61126b856080015161010061155d565b50838560000190600019169081600019168152505082856020019073ffffffffffffffffffffffffffffffffffffffff16908173ffffffffffffffffffffffffffffffffffffffff16815250508185604001907bffffffffffffffffffffffffffffffffffffffffffffffffffffffff191690817bffffffffffffffffffffffffffffffffffffffffffffffffffffffff191681525050849050949350505050565b61131a82600383516115b7565b61132d818361171590919063ffffffff16565b505050565b6060600360009054906101000a900473ffffffffffffffffffffffffffffffffffffffff1673ffffffffffffffffffffffffffffffffffffffff16634042994690507c01000000000000000000000000000000000000000000000000000000000260008084600001518560200151866040015187606001516001896080015160000151604051602401808973ffffffffffffffffffffffffffffffffffffffff1673ffffffffffffffffffffffffffffffffffffffff16815260200188815260200187600019166000191681526020018673ffffffffffffffffffffffffffffffffffffffff1673ffffffffffffffffffffffffffffffffffffffff168152602001857bffffffffffffffffffffffffffffffffffffffffffffffffffffffff19167bffffffffffffffffffffffffffffffffffffffffffffffffffffffff1916815260200184815260200183815260200180602001828103825283818151815260200191508051906020019080838360005b838110156114c05780820151818401526020810190506114a5565b50505050905090810190601f1680156114ed5780820380516001836020036101000a031916815260200191505b509950505050505050505050604051602081830303815290604052907bffffffffffffffffffffffffffffffffffffffffffffffffffffffff19166020820180517bffffffffffffffffffffffffffffffffffffffffffffffffffffffff83818316178352505050509050919050565b611565611995565b600060208381151561157357fe5b061415156115905760208281151561158757fe5b06602003820191505b81836020018181525050604051808452600081528281016020016040525082905092915050565b6017811115156115e9576115e38160058460ff169060020a0260ff16178461173790919063ffffffff16565b50611710565b60ff8111151561163057611613601860058460ff169060020a02178461173790919063ffffffff16565b5061162a816001856117579092919063ffffffff16565b5061170f565b61ffff811115156116785761165b601960058460ff169060020a02178461173790919063ffffffff16565b50611672816002856117579092919063ffffffff16565b5061170e565b63ffffffff811115156116c2576116a5601a60058460ff169060020a02178461173790919063ffffffff16565b506116bc816004856117579092919063ffffffff16565b5061170d565b67ffffffffffffffff8111151561170c576116f3601b60058460ff169060020a02178461173790919063ffffffff16565b5061170a816008856117579092919063ffffffff16565b505b5b5b5b5b505050565b61171d611995565b61172f83846000015151848551611779565b905092915050565b61173f611995565b61174f8384600001515184611836565b905092915050565b61175f611995565b611770848560000151518585611886565b90509392505050565b611781611995565b60008060008551851115151561179657600080fd5b876020015185880111156117c1576117c08860026117ba8b602001518b8a016118e7565b02611903565b5b8751805188602083010194508089880111156117dd5788870182525b60208801935050505b60208510151561180b57815183526020830192506020820191506020850394506117e6565b6001856020036101000a03905080198251168184511681811785525050879350505050949350505050565b61183e611995565b83602001518310151561185d5761185c846002866020015102611903565b5b8351805160208583010184815381861415611879576001820183525b5050508390509392505050565b61188e611995565b6000856020015185840111156118ae576118ad86600287860102611903565b5b6001836101000a03905085518386820101858319825116178152815185880111156118d95784870182525b505085915050949350505050565b6000818311156118f9578290506118fd565b8190505b92915050565b606082600001519050611916838361155d565b506119218382611715565b50505050565b60c06040519081016040528060008019168152602001600073ffffffffffffffffffffffffffffffffffffffff16815260200160007bffffffffffffffffffffffffffffffffffffffffffffffffffffffff191681526020016000815260200161198f6119af565b81525090565b604080519081016040528060608152602001600081525090565b6040805190810160405280606081526020016000815250905600a165627a7a72305820fee0436d7bce6654a62157b227a9536f891b402b788e1cb98318e296f326faa10029",
  "source": "pragma solidity 0.4.24;\n\nimport \"../node_modules/chainlink/contracts/ChainlinkClient.sol\";\nimport \"../node_modules/openzeppelin-solidity/contracts/ownership/Ownable.sol\";\n\n\ncontract DisasterRiskInsurance is ChainlinkClient, Ownable {\n    mapping(address => uint256) private betsTrue;\n    mapping(address => uint256) private betsFalse;\n    uint256 public totalBetTrue;\n    uint256 public totalBetFalse;\n\n    uint256 private oraclePaymentAmount;\n    bytes32 private jobId;\n\n    bool public resultReceived;\n    bool public result;\n\n    constructor(\n        address _link,\n        address _oracle,\n        bytes32 _jobId,\n        uint256 _oraclePaymentAmount\n        )\n    Ownable()\n    public\n    {\n        setChainlinkToken(_link);\n        setChainlinkOracle(_oracle);\n        jobId = _jobId;\n        oraclePaymentAmount = _oraclePaymentAmount;\n    }\n\n    function bet(bool betOutcome) external payable\n    {\n        require(!resultReceived, \"You cannot bet after the result has been received.\");\n        if (betOutcome)\n        {\n            betsTrue[msg.sender] += msg.value;\n            totalBetTrue += msg.value;\n        }\n        else\n        {\n            betsFalse[msg.sender] += msg.value;\n            totalBetFalse += msg.value;\n        }\n    }\n\n    function withdraw() external\n    {\n        require(resultReceived, \"You cannot withdraw before the result has been received.\");\n        if (result)\n        {\n            msg.sender.transfer(((totalBetTrue + totalBetFalse) * betsTrue[msg.sender]) / totalBetTrue);\n            betsTrue[msg.sender] = 0;\n        }\n        else\n        {\n            msg.sender.transfer(((totalBetTrue + totalBetFalse) * betsFalse[msg.sender]) / totalBetFalse);\n            betsFalse[msg.sender] = 0;\n        }\n    }\n\n    // You probably do not want onlyOwner here\n    // But then, you need some mechanism to prevent people from spamming this\n    function requestResultOfDisasterRisk() external returns (bytes32 requestId)    // Without onlyOwner\n    //function requestResult() external onlyOwner returns (bytes32 requestId)\n    {\n        require(!resultReceived, \"The result has already been received.\");\n        Chainlink.Request memory req = buildChainlinkRequest(jobId, this, this.fulfill.selector);\n        // Using Ipstack - IP geolocation API\n        req.add(\"ip\", \"194.199.104.14\");\n        req.add(\"copyPath\", \"connection.isp\");\n        requestId = sendChainlinkRequestTo(chainlinkOracleAddress(), req, oraclePaymentAmount);\n    }\n\n    function getBetAmount(bool outcome) external view returns (uint256 betAmount)\n    {\n        if (outcome)\n        {\n            betAmount = betsTrue[msg.sender];\n        }\n        else\n        {\n            betAmount = betsFalse[msg.sender];\n        }\n    }\n\n    function fulfill(bytes32 _requestId, int256 data)\n    public\n    recordChainlinkFulfillment(_requestId)\n    {\n        resultReceived = true;\n        if (data == 6)\n        {\n            result = true;\n        }\n        else\n        {\n            result = false;\n        }\n    }\n}\n",
  "sourcePath": "/Users/unomasanori/projects/DEMO_MVP/Honeycomb_Hackathon/honeycomb-example-project/contracts/DisasterRiskInsurance.sol",
  "compiler": {
    "name": "solc",
    "version": "0.4.24+commit.e67f0147.Emscripten.clang"
  },
  "schemaVersion": "3.0.19",
  "updatedAt": "2019-11-24T10:11:31.435Z",
  "networkType": "ethereum",
  "devdoc": {
    "methods": {
      "renounceOwnership()": {
        "details": "Allows the current owner to relinquish control of the contract."
      },
      "transferOwnership(address)": {
        "details": "Allows the current owner to transfer control of the contract to a newOwner.",
        "params": {
          "_newOwner": "The address to transfer ownership to."
        }
      }
    }
  },
  "userdoc": {
    "methods": {
      "renounceOwnership()": {
        "notice": "Renouncing to ownership will leave the contract without an owner. It will not be possible to call the functions with the `onlyOwner` modifier anymore."
      }
    }
  }
}