{
  "contractName": "DisasterRiskInsurance",
  "abi": [
    {
      "constant": true,
      "inputs": [],
      "name": "totalFundTrue",
      "outputs": [
        {
          "name": "",
          "type": "uint256"
        }
      ],
      "payable": false,
      "stateMutability": "view",
      "type": "function"
    },
    {
      "constant": true,
      "inputs": [],
      "name": "resultReceived",
      "outputs": [
        {
          "name": "",
          "type": "bool"
        }
      ],
      "payable": false,
      "stateMutability": "view",
      "type": "function"
    },
    {
      "constant": true,
      "inputs": [],
      "name": "resultCapital",
      "outputs": [
        {
          "name": "",
          "type": "bytes32"
        }
      ],
      "payable": false,
      "stateMutability": "view",
      "type": "function"
    },
    {
      "constant": true,
      "inputs": [],
      "name": "resultLatitude",
      "outputs": [
        {
          "name": "",
          "type": "bytes32"
        }
      ],
      "payable": false,
      "stateMutability": "view",
      "type": "function"
    },
    {
      "constant": false,
      "inputs": [],
      "name": "renounceOwnership",
      "outputs": [],
      "payable": false,
      "stateMutability": "nonpayable",
      "type": "function"
    },
    {
      "constant": true,
      "inputs": [],
      "name": "resultLongitude",
      "outputs": [
        {
          "name": "",
          "type": "bytes32"
        }
      ],
      "payable": false,
      "stateMutability": "view",
      "type": "function"
    },
    {
      "constant": true,
      "inputs": [],
      "name": "owner",
      "outputs": [
        {
          "name": "",
          "type": "address"
        }
      ],
      "payable": false,
      "stateMutability": "view",
      "type": "function"
    },
    {
      "constant": true,
      "inputs": [
        {
          "name": "",
          "type": "uint256"
        }
      ],
      "name": "beneficiaries",
      "outputs": [
        {
          "name": "walletAddr",
          "type": "address"
        },
        {
          "name": "totalFundAmount",
          "type": "uint256"
        },
        {
          "name": "ipAddress",
          "type": "string"
        },
        {
          "name": "isDisaster",
          "type": "bool"
        }
      ],
      "payable": false,
      "stateMutability": "view",
      "type": "function"
    },
    {
      "constant": false,
      "inputs": [
        {
          "name": "_newOwner",
          "type": "address"
        }
      ],
      "name": "transferOwnership",
      "outputs": [],
      "payable": false,
      "stateMutability": "nonpayable",
      "type": "function"
    },
    {
      "inputs": [
        {
          "name": "_link",
          "type": "address"
        },
        {
          "name": "_oracle",
          "type": "address"
        },
        {
          "name": "_jobId_1",
          "type": "bytes32"
        },
        {
          "name": "_jobId_2",
          "type": "bytes32"
        },
        {
          "name": "_jobId_3",
          "type": "bytes32"
        },
        {
          "name": "_oraclePaymentAmount",
          "type": "uint256"
        }
      ],
      "payable": false,
      "stateMutability": "nonpayable",
      "type": "constructor"
    },
    {
      "anonymous": false,
      "inputs": [
        {
          "indexed": true,
          "name": "previousOwner",
          "type": "address"
        }
      ],
      "name": "OwnershipRenounced",
      "type": "event"
    },
    {
      "anonymous": false,
      "inputs": [
        {
          "indexed": true,
          "name": "previousOwner",
          "type": "address"
        },
        {
          "indexed": true,
          "name": "newOwner",
          "type": "address"
        }
      ],
      "name": "OwnershipTransferred",
      "type": "event"
    },
    {
      "anonymous": false,
      "inputs": [
        {
          "indexed": false,
          "name": "requestId",
          "type": "bytes32"
        }
      ],
      "name": "RequestResultOfDisasterRisk",
      "type": "event"
    },
    {
      "anonymous": false,
      "inputs": [
        {
          "indexed": false,
          "name": "requestId",
          "type": "bytes32"
        },
        {
          "indexed": false,
          "name": "exampleName",
          "type": "string"
        },
        {
          "indexed": false,
          "name": "exampleAddr",
          "type": "address"
        }
      ],
      "name": "ExampleEvent",
      "type": "event"
    },
    {
      "anonymous": false,
      "inputs": [
        {
          "indexed": true,
          "name": "id",
          "type": "bytes32"
        }
      ],
      "name": "ChainlinkRequested",
      "type": "event"
    },
    {
      "anonymous": false,
      "inputs": [
        {
          "indexed": true,
          "name": "id",
          "type": "bytes32"
        }
      ],
      "name": "ChainlinkFulfilled",
      "type": "event"
    },
    {
      "anonymous": false,
      "inputs": [
        {
          "indexed": true,
          "name": "id",
          "type": "bytes32"
        }
      ],
      "name": "ChainlinkCancelled",
      "type": "event"
    },
    {
      "constant": false,
      "inputs": [
        {
          "name": "fundOutcome",
          "type": "bool"
        }
      ],
      "name": "fundInsurance",
      "outputs": [],
      "payable": true,
      "stateMutability": "payable",
      "type": "function"
    },
    {
      "constant": false,
      "inputs": [],
      "name": "withdrawFromFundPool",
      "outputs": [],
      "payable": false,
      "stateMutability": "nonpayable",
      "type": "function"
    },
    {
      "constant": false,
      "inputs": [
        {
          "name": "ipAddress",
          "type": "string"
        }
      ],
      "name": "requestResultOfCapital",
      "outputs": [
        {
          "name": "requestId",
          "type": "bytes32"
        }
      ],
      "payable": false,
      "stateMutability": "nonpayable",
      "type": "function"
    },
    {
      "constant": false,
      "inputs": [
        {
          "name": "ipAddress",
          "type": "string"
        }
      ],
      "name": "requestResultOfLatitude",
      "outputs": [
        {
          "name": "requestId",
          "type": "bytes32"
        }
      ],
      "payable": false,
      "stateMutability": "nonpayable",
      "type": "function"
    },
    {
      "constant": false,
      "inputs": [
        {
          "name": "ipAddress",
          "type": "string"
        }
      ],
      "name": "requestResultOfLongitude",
      "outputs": [
        {
          "name": "requestId",
          "type": "bytes32"
        }
      ],
      "payable": false,
      "stateMutability": "nonpayable",
      "type": "function"
    },
    {
      "constant": true,
      "inputs": [
        {
          "name": "outcome",
          "type": "bool"
        }
      ],
      "name": "getFundAmount",
      "outputs": [
        {
          "name": "fundAmount",
          "type": "uint256"
        }
      ],
      "payable": false,
      "stateMutability": "view",
      "type": "function"
    },
    {
      "constant": false,
      "inputs": [
        {
          "name": "_requestId",
          "type": "bytes32"
        },
        {
          "name": "data",
          "type": "bytes32"
        }
      ],
      "name": "fulfill_capital",
      "outputs": [],
      "payable": false,
      "stateMutability": "nonpayable",
      "type": "function"
    },
    {
      "constant": false,
      "inputs": [
        {
          "name": "_requestId",
          "type": "bytes32"
        },
        {
          "name": "data",
          "type": "bytes32"
        }
      ],
      "name": "fulfill_latitude",
      "outputs": [],
      "payable": false,
      "stateMutability": "nonpayable",
      "type": "function"
    },
    {
      "constant": false,
      "inputs": [
        {
          "name": "_requestId",
          "type": "bytes32"
        },
        {
          "name": "data",
          "type": "bytes32"
        }
      ],
      "name": "fulfill_longitude",
      "outputs": [],
      "payable": false,
      "stateMutability": "nonpayable",
      "type": "function"
    }
  ],
  "bytecode": "0x6080604052600160045534801561001557600080fd5b5060405160c0806200220783398101806040528101908080519060200190929190805190602001909291908051906020019092919080519060200190929190805190602001909291908051906020019092919050505033600660006101000a81548173ffffffffffffffffffffffffffffffffffffffff021916908373ffffffffffffffffffffffffffffffffffffffff1602179055506100c48661010f640100000000026401000000009004565b6100dc85610153640100000000026401000000009004565b83600d816000191690555082600e816000191690555081600f816000191690555080600c81905550505050505050610197565b80600260006101000a81548173ffffffffffffffffffffffffffffffffffffffff021916908373ffffffffffffffffffffffffffffffffffffffff16021790555050565b80600360006101000a81548173ffffffffffffffffffffffffffffffffffffffff021916908373ffffffffffffffffffffffffffffffffffffffff16021790555050565b61206080620001a76000396000f3006080604052600436106100fc576000357c0100000000000000000000000000000000000000000000000000000000900463ffffffff168063038dad22146101015780630dece4601461011857806314f421ac1461015b5780631effbffc146101b257806347549f4c146101f15780634cd38cc21461021c5780634f54d3831461024b5780635390c73b1461027e5780636963a524146102bd5780636fa06921146102f0578063715018a614610312578063753b4785146103295780637df35800146103805780638da5cb5b146103b3578063efeb5e581461040a578063f1afc211146104f5578063f2fde38b1461054c578063f8f1d8c41461058f575b600080fd5b34801561010d57600080fd5b506101166105ce565b005b34801561012457600080fd5b50610145600480360381019080803515159060200190929190505050610756565b6040518082815260200191505060405180910390f35b34801561016757600080fd5b506101946004803603810190808035906020019082018035906020019190919293919293905050506107a6565b60405180826000191660001916815260200191505060405180910390f35b3480156101be57600080fd5b506101ef600480360381019080803560001916906020019092919080356000191690602001909291905050506108fa565b005b3480156101fd57600080fd5b50610206610a99565b6040518082815260200191505060405180910390f35b34801561022857600080fd5b50610231610a9f565b604051808215151515815260200191505060405180910390f35b34801561025757600080fd5b50610260610ab2565b60405180826000191660001916815260200191505060405180910390f35b34801561028a57600080fd5b506102bb60048036038101908080356000191690602001909291908035600019169060200190929190505050610ab8565b005b3480156102c957600080fd5b506102d2610c57565b60405180826000191660001916815260200191505060405180910390f35b610310600480360381019080803515159060200190929190505050610c5d565b005b34801561031e57600080fd5b50610327610cc4565b005b34801561033557600080fd5b50610362600480360381019080803590602001908201803590602001919091929391929390505050610dc9565b60405180826000191660001916815260200191505060405180910390f35b34801561038c57600080fd5b50610395610f1d565b60405180826000191660001916815260200191505060405180910390f35b3480156103bf57600080fd5b506103c8610f23565b604051808273ffffffffffffffffffffffffffffffffffffffff1673ffffffffffffffffffffffffffffffffffffffff16815260200191505060405180910390f35b34801561041657600080fd5b5061043560048036038101908080359060200190929190505050610f49565b604051808573ffffffffffffffffffffffffffffffffffffffff1673ffffffffffffffffffffffffffffffffffffffff1681526020018481526020018060200183151515158152602001828103825284818151815260200191508051906020019080838360005b838110156104b757808201518184015260208101905061049c565b50505050905090810190601f1680156104e45780820380516001836020036101000a031916815260200191505b509550505050505060405180910390f35b34801561050157600080fd5b5061052e60048036038101908080359060200190820180359060200191909192939192939050505061104d565b60405180826000191660001916815260200191505060405180910390f35b34801561055857600080fd5b5061058d600480360381019080803573ffffffffffffffffffffffffffffffffffffffff1690602001909291905050506111a1565b005b34801561059b57600080fd5b506105cc60048036038101908080356000191690602001909291908035600019169060200190929190505050611209565b005b601060009054906101000a900460ff161515610678576040517f08c379a00000000000000000000000000000000000000000000000000000000081526004018080602001828103825260388152602001807f596f752063616e6e6f74207769746864726177206265666f726520746865207281526020017f6573756c7420686173206265656e2072656365697665642e000000000000000081525060400191505060405180910390fd5b3373ffffffffffffffffffffffffffffffffffffffff166108fc600b54600960003373ffffffffffffffffffffffffffffffffffffffff1673ffffffffffffffffffffffffffffffffffffffff16815260200190815260200160002054600b54028115156106e257fe5b049081150290604051600060405180830381858888f1935050505015801561070e573d6000803e3d6000fd5b506000600960003373ffffffffffffffffffffffffffffffffffffffff1673ffffffffffffffffffffffffffffffffffffffff16815260200190815260200160002081905550565b600081156107a157600960003373ffffffffffffffffffffffffffffffffffffffff1673ffffffffffffffffffffffffffffffffffffffff1681526020019081526020016000205490505b919050565b60006107b0611f92565b6107e0600d5430635390c73b7c0100000000000000000000000000000000000000000000000000000000026113a8565b905061085e6040805190810160405280600281526020017f697000000000000000000000000000000000000000000000000000000000000081525085858080601f016020809104026020016040519081016040528093929190818152602001838380828437820191505050505050836113d99092919063ffffffff16565b6108dd6040805190810160405280600881526020017f636f7079506174680000000000000000000000000000000000000000000000008152506040805190810160405280600881526020017f6c61746974756465000000000000000000000000000000000000000000000000815250836113d99092919063ffffffff16565b6108f16108e861140c565b82600c54611436565b91505092915050565b8160056000826000191660001916815260200190815260200160002060009054906101000a900473ffffffffffffffffffffffffffffffffffffffff1673ffffffffffffffffffffffffffffffffffffffff163373ffffffffffffffffffffffffffffffffffffffff161415156109ff576040517f08c379a00000000000000000000000000000000000000000000000000000000081526004018080602001828103825260288152602001807f536f75726365206d75737420626520746865206f7261636c65206f662074686581526020017f207265717565737400000000000000000000000000000000000000000000000081525060400191505060405180910390fd5b60056000826000191660001916815260200190815260200160002060006101000a81549073ffffffffffffffffffffffffffffffffffffffff021916905580600019167f7cc135e0cebb02c3480ae5d74d377283180a2601f8f644edf7987b009316c63a60405160405180910390a26001601060006101000a81548160ff0219169083151502179055508160138160001916905550505050565b600b5481565b601060009054906101000a900460ff1681565b60115481565b8160056000826000191660001916815260200190815260200160002060009054906101000a900473ffffffffffffffffffffffffffffffffffffffff1673ffffffffffffffffffffffffffffffffffffffff163373ffffffffffffffffffffffffffffffffffffffff16141515610bbd576040517f08c379a00000000000000000000000000000000000000000000000000000000081526004018080602001828103825260288152602001807f536f75726365206d75737420626520746865206f7261636c65206f662074686581526020017f207265717565737400000000000000000000000000000000000000000000000081525060400191505060405180910390fd5b60056000826000191660001916815260200190815260200160002060006101000a81549073ffffffffffffffffffffffffffffffffffffffff021916905580600019167f7cc135e0cebb02c3480ae5d74d377283180a2601f8f644edf7987b009316c63a60405160405180910390a26001601060006101000a81548160ff0219169083151502179055508160128160001916905550505050565b60125481565b8015610cc15734600960003373ffffffffffffffffffffffffffffffffffffffff1673ffffffffffffffffffffffffffffffffffffffff1681526020019081526020016000206000828254019250508190555034600b600082825401925050819055505b50565b600660009054906101000a900473ffffffffffffffffffffffffffffffffffffffff1673ffffffffffffffffffffffffffffffffffffffff163373ffffffffffffffffffffffffffffffffffffffff16141515610d2057600080fd5b600660009054906101000a900473ffffffffffffffffffffffffffffffffffffffff1673ffffffffffffffffffffffffffffffffffffffff167ff8df31144d9c2f0f6b59d69b8b98abd5459d07f2742c4df920b25aae33c6482060405160405180910390a26000600660006101000a81548173ffffffffffffffffffffffffffffffffffffffff021916908373ffffffffffffffffffffffffffffffffffffffff160217905550565b6000610dd3611f92565b610e03600d543063f8f1d8c47c0100000000000000000000000000000000000000000000000000000000026113a8565b9050610e816040805190810160405280600281526020017f697000000000000000000000000000000000000000000000000000000000000081525085858080601f016020809104026020016040519081016040528093929190818152602001838380828437820191505050505050836113d99092919063ffffffff16565b610f006040805190810160405280600881526020017f636f7079506174680000000000000000000000000000000000000000000000008152506040805190810160405280600481526020017f6369747900000000000000000000000000000000000000000000000000000000815250836113d99092919063ffffffff16565b610f14610f0b61140c565b82600c54611436565b91505092915050565b60135481565b600660009054906101000a900473ffffffffffffffffffffffffffffffffffffffff1681565b600781815481101515610f5857fe5b90600052602060002090600402016000915090508060000160009054906101000a900473ffffffffffffffffffffffffffffffffffffffff1690806001015490806002018054600181600116156101000203166002900480601f0160208091040260200160405190810160405280929190818152602001828054600181600116156101000203166002900480156110305780601f1061100557610100808354040283529160200191611030565b820191906000526020600020905b81548152906001019060200180831161101357829003601f168201915b5050505050908060030160009054906101000a900460ff16905084565b6000611057611f92565b611087600d5430631effbffc7c0100000000000000000000000000000000000000000000000000000000026113a8565b90506111056040805190810160405280600281526020017f697000000000000000000000000000000000000000000000000000000000000081525085858080601f016020809104026020016040519081016040528093929190818152602001838380828437820191505050505050836113d99092919063ffffffff16565b6111846040805190810160405280600881526020017f636f7079506174680000000000000000000000000000000000000000000000008152506040805190810160405280600981526020017f6c6f6e6769747564650000000000000000000000000000000000000000000000815250836113d99092919063ffffffff16565b61119861118f61140c565b82600c54611436565b91505092915050565b600660009054906101000a900473ffffffffffffffffffffffffffffffffffffffff1673ffffffffffffffffffffffffffffffffffffffff163373ffffffffffffffffffffffffffffffffffffffff161415156111fd57600080fd5b611206816117c2565b50565b8160056000826000191660001916815260200190815260200160002060009054906101000a900473ffffffffffffffffffffffffffffffffffffffff1673ffffffffffffffffffffffffffffffffffffffff163373ffffffffffffffffffffffffffffffffffffffff1614151561130e576040517f08c379a00000000000000000000000000000000000000000000000000000000081526004018080602001828103825260288152602001807f536f75726365206d75737420626520746865206f7261636c65206f662074686581526020017f207265717565737400000000000000000000000000000000000000000000000081525060400191505060405180910390fd5b60056000826000191660001916815260200190815260200160002060006101000a81549073ffffffffffffffffffffffffffffffffffffffff021916905580600019167f7cc135e0cebb02c3480ae5d74d377283180a2601f8f644edf7987b009316c63a60405160405180910390a26001601060006101000a81548160ff0219169083151502179055508160118160001916905550505050565b6113b0611f92565b6113b8611f92565b6113cf858585846118be909392919063ffffffff16565b9150509392505050565b6113f082846080015161197890919063ffffffff16565b61140781846080015161197890919063ffffffff16565b505050565b6000600360009054906101000a900473ffffffffffffffffffffffffffffffffffffffff16905090565b600030600454604051602001808373ffffffffffffffffffffffffffffffffffffffff1673ffffffffffffffffffffffffffffffffffffffff166c01000000000000000000000000028152601401828152602001925050506040516020818303038152906040526040518082805190602001908083835b6020831015156114d257805182526020820191506020810190506020830392506114ad565b6001836020036101000a038019825116818451168082178552505050505050905001915050604051809103902090506004548360600181815250508360056000836000191660001916815260200190815260200160002060006101000a81548173ffffffffffffffffffffffffffffffffffffffff021916908373ffffffffffffffffffffffffffffffffffffffff16021790555080600019167fb5e6e01e79f91267dc17b4e6314d5d4d03593d2ceee0fbb452b750bd70ea5af960405160405180910390a2600260009054906101000a900473ffffffffffffffffffffffffffffffffffffffff1673ffffffffffffffffffffffffffffffffffffffff16634000aea085846115e18761199d565b6040518463ffffffff167c0100000000000000000000000000000000000000000000000000000000028152600401808473ffffffffffffffffffffffffffffffffffffffff1673ffffffffffffffffffffffffffffffffffffffff16815260200183815260200180602001828103825283818151815260200191508051906020019080838360005b83811015611684578082015181840152602081019050611669565b50505050905090810190601f1680156116b15780820380516001836020036101000a031916815260200191505b50945050505050602060405180830381600087803b1580156116d257600080fd5b505af11580156116e6573d6000803e3d6000fd5b505050506040513d60208110156116fc57600080fd5b810190808051906020019092919050505015156117a7576040517f08c379a00000000000000000000000000000000000000000000000000000000081526004018080602001828103825260238152602001807f756e61626c6520746f207472616e73666572416e6443616c6c20746f206f726181526020017f636c65000000000000000000000000000000000000000000000000000000000081525060400191505060405180910390fd5b60016004600082825401925050819055508090509392505050565b600073ffffffffffffffffffffffffffffffffffffffff168173ffffffffffffffffffffffffffffffffffffffff16141515156117fe57600080fd5b8073ffffffffffffffffffffffffffffffffffffffff16600660009054906101000a900473ffffffffffffffffffffffffffffffffffffffff1673ffffffffffffffffffffffffffffffffffffffff167f8be0079c531659141344cd1fd0a4f28419497f9722a3daafe3b4186f6b6457e060405160405180910390a380600660006101000a81548173ffffffffffffffffffffffffffffffffffffffff021916908373ffffffffffffffffffffffffffffffffffffffff16021790555050565b6118c6611f92565b6118d68560800151610100611bc8565b50838560000190600019169081600019168152505082856020019073ffffffffffffffffffffffffffffffffffffffff16908173ffffffffffffffffffffffffffffffffffffffff16815250508185604001907bffffffffffffffffffffffffffffffffffffffffffffffffffffffff191690817bffffffffffffffffffffffffffffffffffffffffffffffffffffffff191681525050849050949350505050565b6119858260038351611c22565b6119988183611d8090919063ffffffff16565b505050565b6060600360009054906101000a900473ffffffffffffffffffffffffffffffffffffffff1673ffffffffffffffffffffffffffffffffffffffff16634042994690507c01000000000000000000000000000000000000000000000000000000000260008084600001518560200151866040015187606001516001896080015160000151604051602401808973ffffffffffffffffffffffffffffffffffffffff1673ffffffffffffffffffffffffffffffffffffffff16815260200188815260200187600019166000191681526020018673ffffffffffffffffffffffffffffffffffffffff1673ffffffffffffffffffffffffffffffffffffffff168152602001857bffffffffffffffffffffffffffffffffffffffffffffffffffffffff19167bffffffffffffffffffffffffffffffffffffffffffffffffffffffff1916815260200184815260200183815260200180602001828103825283818151815260200191508051906020019080838360005b83811015611b2b578082015181840152602081019050611b10565b50505050905090810190601f168015611b585780820380516001836020036101000a031916815260200191505b509950505050505050505050604051602081830303815290604052907bffffffffffffffffffffffffffffffffffffffffffffffffffffffff19166020820180517bffffffffffffffffffffffffffffffffffffffffffffffffffffffff83818316178352505050509050919050565b611bd0612000565b6000602083811515611bde57fe5b06141515611bfb57602082811515611bf257fe5b06602003820191505b81836020018181525050604051808452600081528281016020016040525082905092915050565b601781111515611c5457611c4e8160058460ff169060020a0260ff161784611da290919063ffffffff16565b50611d7b565b60ff81111515611c9b57611c7e601860058460ff169060020a021784611da290919063ffffffff16565b50611c9581600185611dc29092919063ffffffff16565b50611d7a565b61ffff81111515611ce357611cc6601960058460ff169060020a021784611da290919063ffffffff16565b50611cdd81600285611dc29092919063ffffffff16565b50611d79565b63ffffffff81111515611d2d57611d10601a60058460ff169060020a021784611da290919063ffffffff16565b50611d2781600485611dc29092919063ffffffff16565b50611d78565b67ffffffffffffffff81111515611d7757611d5e601b60058460ff169060020a021784611da290919063ffffffff16565b50611d7581600885611dc29092919063ffffffff16565b505b5b5b5b5b505050565b611d88612000565b611d9a83846000015151848551611de4565b905092915050565b611daa612000565b611dba8384600001515184611ea1565b905092915050565b611dca612000565b611ddb848560000151518585611ef1565b90509392505050565b611dec612000565b600080600085518511151515611e0157600080fd5b87602001518588011115611e2c57611e2b886002611e258b602001518b8a01611f52565b02611f6e565b5b875180518860208301019450808988011115611e485788870182525b60208801935050505b602085101515611e765781518352602083019250602082019150602085039450611e51565b6001856020036101000a03905080198251168184511681811785525050879350505050949350505050565b611ea9612000565b836020015183101515611ec857611ec7846002866020015102611f6e565b5b8351805160208583010184815381861415611ee4576001820183525b5050508390509392505050565b611ef9612000565b600085602001518584011115611f1957611f1886600287860102611f6e565b5b6001836101000a0390508551838682010185831982511617815281518588011115611f445784870182525b505085915050949350505050565b600081831115611f6457829050611f68565b8190505b92915050565b606082600001519050611f818383611bc8565b50611f8c8382611d80565b50505050565b60c06040519081016040528060008019168152602001600073ffffffffffffffffffffffffffffffffffffffff16815260200160007bffffffffffffffffffffffffffffffffffffffffffffffffffffffff1916815260200160008152602001611ffa61201a565b81525090565b604080519081016040528060608152602001600081525090565b6040805190810160405280606081526020016000815250905600a165627a7a7230582099e2dc78ac2f22366617d296a0231e8537b38d684306d3853d690c4386f1cd700029",
  "source": "pragma solidity 0.4.24;\n\nimport \"../node_modules/chainlink/contracts/ChainlinkClient.sol\";\nimport \"../node_modules/openzeppelin-solidity/contracts/ownership/Ownable.sol\";\n\nimport \"./storage/DrStorage.sol\";\nimport \"./storage/DrConstants.sol\";\n\n\ncontract DisasterRiskInsurance is ChainlinkClient, Ownable, DrStorage, DrConstants {\n    mapping(address => uint256) private fundTrue;\n    mapping(address => uint256) private fundFalse;\n    uint256 public totalFundTrue;\n\n    uint256 private oraclePaymentAmount;\n    bytes32 private jobId_1;  // This jobId's data-type is bytes32\n    bytes32 private jobId_2;  // This jobId's data-type is int256\n    bytes32 private jobId_3;  // This jobId's data-type is uint256\n\n    bool public resultReceived;   // default value is \"false\"\n    bytes32 public resultCapital;       // This is result value of request\n    bytes32 public resultLatitude;       // This is result value of request\n    bytes32 public resultLongitude;     // This is result value of request\n\n    constructor(\n        address _link,\n        address _oracle,\n        bytes32 _jobId_1,  // This jobId's data-type is bytes32\n        bytes32 _jobId_2,  // This jobId's data-type is int256\n        bytes32 _jobId_3,  // This jobId's data-type is uint256\n        uint256 _oraclePaymentAmount\n    ) Ownable() public \n    {\n        setChainlinkToken(_link);\n        setChainlinkOracle(_oracle);\n        jobId_1 = _jobId_1;  // This jobId's data-type is bytes32\n        jobId_2 = _jobId_2;  // This jobId's data-type is int256\n        jobId_3 = _jobId_3;  // This jobId's data-type is uint256\n        oraclePaymentAmount = _oraclePaymentAmount;\n    }\n\n    function fundInsurance(bool fundOutcome) external payable\n    {\n        //require(!resultReceived, \"You cannot fund after the result has been received.\");\n        if (fundOutcome) {\n            fundTrue[msg.sender] += msg.value;\n            totalFundTrue += msg.value;\n        }\n\n    }\n\n    function withdrawFromFundPool() external {\n        require(resultReceived, \"You cannot withdraw before the result has been received.\");\n        msg.sender.transfer(((totalFundTrue) * fundTrue[msg.sender]) / totalFundTrue);\n            fundTrue[msg.sender] = 0;\n    }\n\n    // You probably do not want onlyOwner here\n    // But then, you need some mechanism to prevent people from spamming this\n    function requestResultOfCapital(string ipAddress) external returns (bytes32 requestId)    // Without onlyOwner\n    {\n        //require(!resultReceived, \"The result has already been received.\");\n\n        //Chainlink.Request memory req = buildChainlinkRequest(jobId_1, this, this.fulfill.selector);\n        Chainlink.Request memory req = buildChainlinkRequest(jobId_1, this, this.fulfill_capital.selector);\n        // Using Ipstack - IP geolocation API\n        req.add(\"ip\", ipAddress);\n        //req.add(\"ip\", \"194.199.104.14\");\n        req.add(\"copyPath\", \"city\");\n        //req.add(\"copyPath\", \"location.capital\");\n        //req.add(\"copyPath\", \"connection.isp\");\n\n        requestId = sendChainlinkRequestTo(chainlinkOracleAddress(), req, oraclePaymentAmount);\n    }\n\n    function requestResultOfLatitude(string ipAddress) external returns (bytes32 requestId)    // Without onlyOwner\n    {\n        Chainlink.Request memory req = buildChainlinkRequest(jobId_1, this, this.fulfill_latitude.selector);\n        // Using Ipstack - IP geolocation API\n        req.add(\"ip\", ipAddress);\n        req.add(\"copyPath\", \"latitude\");\n        requestId = sendChainlinkRequestTo(chainlinkOracleAddress(), req, oraclePaymentAmount);\n    }\n\n    function requestResultOfLongitude(string ipAddress) external returns (bytes32 requestId)    // Without onlyOwner\n    {\n        Chainlink.Request memory req = buildChainlinkRequest(jobId_1, this, this.fulfill_longitude.selector);\n        // Using Ipstack - IP geolocation API\n        req.add(\"ip\", ipAddress);\n        req.add(\"copyPath\", \"longitude\");\n        requestId = sendChainlinkRequestTo(chainlinkOracleAddress(), req, oraclePaymentAmount);\n    }\n\n    function getFundAmount(bool outcome) external view returns (uint256 fundAmount) \n    {\n        if (outcome) {\n            fundAmount = fundTrue[msg.sender];\n        }\n        \n    }\n\n\n    function fulfill_capital(bytes32 _requestId, bytes32 data)\n    public\n    recordChainlinkFulfillment(_requestId)\n    {\n        resultReceived = true;\n        resultCapital = data;\n        //result = data;\n    }\n\n    function fulfill_latitude(bytes32 _requestId, bytes32 data)\n    public\n    recordChainlinkFulfillment(_requestId)\n    {\n        resultReceived = true;\n        resultLatitude = data;\n        //result = data;\n    }\n\n    function fulfill_longitude(bytes32 _requestId, bytes32 data)\n    public\n    recordChainlinkFulfillment(_requestId)\n    {\n        resultReceived = true;\n        resultLongitude = data;\n        //result = data;\n    }\n}\n",
  "sourcePath": "/Users/unomasanori/projects/DEMO_MVP/Honeycomb_Hackathon/disaster-risk-insurance/contracts/DisasterRiskInsurance.sol",
  "compiler": {
    "name": "solc",
    "version": "0.4.24+commit.e67f0147.Emscripten.clang"
  },
  "schemaVersion": "3.0.19",
  "updatedAt": "2019-11-28T16:06:04.251Z",
  "networkType": "ethereum",
  "devdoc": {
    "methods": {
      "renounceOwnership()": {
        "details": "Allows the current owner to relinquish control of the contract."
      },
      "transferOwnership(address)": {
        "details": "Allows the current owner to transfer control of the contract to a newOwner.",
        "params": {
          "_newOwner": "The address to transfer ownership to."
        }
      }
    }
  },
  "userdoc": {
    "methods": {
      "renounceOwnership()": {
        "notice": "Renouncing to ownership will leave the contract without an owner. It will not be possible to call the functions with the `onlyOwner` modifier anymore."
      }
    }
  }
}