{
  "contractName": "DisasterRiskInsurance",
  "abi": [
    {
      "constant": true,
      "inputs": [],
      "name": "totalFundTrue",
      "outputs": [
        {
          "name": "",
          "type": "uint256"
        }
      ],
      "payable": false,
      "stateMutability": "view",
      "type": "function"
    },
    {
      "constant": true,
      "inputs": [],
      "name": "resultReceived",
      "outputs": [
        {
          "name": "",
          "type": "bool"
        }
      ],
      "payable": false,
      "stateMutability": "view",
      "type": "function"
    },
    {
      "constant": true,
      "inputs": [],
      "name": "result",
      "outputs": [
        {
          "name": "",
          "type": "bool"
        }
      ],
      "payable": false,
      "stateMutability": "view",
      "type": "function"
    },
    {
      "constant": false,
      "inputs": [],
      "name": "renounceOwnership",
      "outputs": [],
      "payable": false,
      "stateMutability": "nonpayable",
      "type": "function"
    },
    {
      "constant": true,
      "inputs": [],
      "name": "owner",
      "outputs": [
        {
          "name": "",
          "type": "address"
        }
      ],
      "payable": false,
      "stateMutability": "view",
      "type": "function"
    },
    {
      "constant": false,
      "inputs": [
        {
          "name": "_newOwner",
          "type": "address"
        }
      ],
      "name": "transferOwnership",
      "outputs": [],
      "payable": false,
      "stateMutability": "nonpayable",
      "type": "function"
    },
    {
      "inputs": [
        {
          "name": "_link",
          "type": "address"
        },
        {
          "name": "_oracle",
          "type": "address"
        },
        {
          "name": "_jobId",
          "type": "bytes32"
        },
        {
          "name": "_oraclePaymentAmount",
          "type": "uint256"
        }
      ],
      "payable": false,
      "stateMutability": "nonpayable",
      "type": "constructor"
    },
    {
      "anonymous": false,
      "inputs": [
        {
          "indexed": true,
          "name": "previousOwner",
          "type": "address"
        }
      ],
      "name": "OwnershipRenounced",
      "type": "event"
    },
    {
      "anonymous": false,
      "inputs": [
        {
          "indexed": true,
          "name": "previousOwner",
          "type": "address"
        },
        {
          "indexed": true,
          "name": "newOwner",
          "type": "address"
        }
      ],
      "name": "OwnershipTransferred",
      "type": "event"
    },
    {
      "anonymous": false,
      "inputs": [
        {
          "indexed": false,
          "name": "requestId",
          "type": "bytes32"
        }
      ],
      "name": "RequestResultOfDisasterRisk",
      "type": "event"
    },
    {
      "anonymous": false,
      "inputs": [
        {
          "indexed": false,
          "name": "requestId",
          "type": "bytes32"
        },
        {
          "indexed": false,
          "name": "exampleName",
          "type": "string"
        },
        {
          "indexed": false,
          "name": "exampleAddr",
          "type": "address"
        }
      ],
      "name": "ExampleEvent",
      "type": "event"
    },
    {
      "anonymous": false,
      "inputs": [
        {
          "indexed": true,
          "name": "id",
          "type": "bytes32"
        }
      ],
      "name": "ChainlinkRequested",
      "type": "event"
    },
    {
      "anonymous": false,
      "inputs": [
        {
          "indexed": true,
          "name": "id",
          "type": "bytes32"
        }
      ],
      "name": "ChainlinkFulfilled",
      "type": "event"
    },
    {
      "anonymous": false,
      "inputs": [
        {
          "indexed": true,
          "name": "id",
          "type": "bytes32"
        }
      ],
      "name": "ChainlinkCancelled",
      "type": "event"
    },
    {
      "constant": false,
      "inputs": [
        {
          "name": "fundOutcome",
          "type": "bool"
        }
      ],
      "name": "fundInsurance",
      "outputs": [],
      "payable": true,
      "stateMutability": "payable",
      "type": "function"
    },
    {
      "constant": false,
      "inputs": [],
      "name": "withdrawFromFundPool",
      "outputs": [],
      "payable": false,
      "stateMutability": "nonpayable",
      "type": "function"
    },
    {
      "constant": false,
      "inputs": [],
      "name": "requestResultOfDisasterRisk",
      "outputs": [
        {
          "name": "requestId",
          "type": "bytes32"
        }
      ],
      "payable": false,
      "stateMutability": "nonpayable",
      "type": "function"
    },
    {
      "constant": true,
      "inputs": [
        {
          "name": "outcome",
          "type": "bool"
        }
      ],
      "name": "getFundAmount",
      "outputs": [
        {
          "name": "fundAmount",
          "type": "uint256"
        }
      ],
      "payable": false,
      "stateMutability": "view",
      "type": "function"
    },
    {
      "constant": false,
      "inputs": [
        {
          "name": "_requestId",
          "type": "bytes32"
        },
        {
          "name": "data",
          "type": "int256"
        }
      ],
      "name": "fulfill",
      "outputs": [],
      "payable": false,
      "stateMutability": "nonpayable",
      "type": "function"
    }
  ],
  "bytecode": "0x6080604052600160045534801561001557600080fd5b506040516080806119a08339810180604052810190808051906020019092919080519060200190929190805190602001909291908051906020019092919050505033600660006101000a81548173ffffffffffffffffffffffffffffffffffffffff021916908373ffffffffffffffffffffffffffffffffffffffff1602179055506100af846100e2640100000000026401000000009004565b6100c783610126640100000000026401000000009004565b81600b816000191690555080600a819055505050505061016a565b80600260006101000a81548173ffffffffffffffffffffffffffffffffffffffff021916908373ffffffffffffffffffffffffffffffffffffffff16021790555050565b80600360006101000a81548173ffffffffffffffffffffffffffffffffffffffff021916908373ffffffffffffffffffffffffffffffffffffffff16021790555050565b611827806101796000396000f3006080604052600436106100af576000357c0100000000000000000000000000000000000000000000000000000000900463ffffffff168063038dad22146100b45780630dece460146100cb57806347549f4c1461010e5780634cd38cc21461013957806365372147146101685780636fa0692114610197578063715018a6146101b95780638da5cb5b146101d0578063bda71d0414610227578063c3eddc4314610262578063f2fde38b14610295575b600080fd5b3480156100c057600080fd5b506100c96102d8565b005b3480156100d757600080fd5b506100f8600480360381019080803515159060200190929190505050610476565b6040518082815260200191505060405180910390f35b34801561011a57600080fd5b506101236104c6565b6040518082815260200191505060405180910390f35b34801561014557600080fd5b5061014e6104cc565b604051808215151515815260200191505060405180910390f35b34801561017457600080fd5b5061017d6104df565b604051808215151515815260200191505060405180910390f35b6101b76004803603810190808035151590602001909291905050506104f2565b005b3480156101c557600080fd5b506101ce610604565b005b3480156101dc57600080fd5b506101e5610709565b604051808273ffffffffffffffffffffffffffffffffffffffff1673ffffffffffffffffffffffffffffffffffffffff16815260200191505060405180910390f35b34801561023357600080fd5b5061026060048036038101908080356000191690602001909291908035906020019092919050505061072f565b005b34801561026e57600080fd5b50610277610908565b60405180826000191660001916815260200191505060405180910390f35b3480156102a157600080fd5b506102d6600480360381019080803573ffffffffffffffffffffffffffffffffffffffff169060200190929190505050610b07565b005b600c60009054906101000a900460ff161515610382576040517f08c379a00000000000000000000000000000000000000000000000000000000081526004018080602001828103825260388152602001807f596f752063616e6e6f74207769746864726177206265666f726520746865207281526020017f6573756c7420686173206265656e2072656365697665642e000000000000000081525060400191505060405180910390fd5b600c60019054906101000a900460ff1615610474573373ffffffffffffffffffffffffffffffffffffffff166108fc600954600860003373ffffffffffffffffffffffffffffffffffffffff1673ffffffffffffffffffffffffffffffffffffffff168152602001908152602001600020546009540281151561040157fe5b049081150290604051600060405180830381858888f1935050505015801561042d573d6000803e3d6000fd5b506000600860003373ffffffffffffffffffffffffffffffffffffffff1673ffffffffffffffffffffffffffffffffffffffff168152602001908152602001600020819055505b565b600081156104c157600860003373ffffffffffffffffffffffffffffffffffffffff1673ffffffffffffffffffffffffffffffffffffffff1681526020019081526020016000205490505b919050565b60095481565b600c60009054906101000a900460ff1681565b600c60019054906101000a900460ff1681565b600c60009054906101000a900460ff1615151561059d576040517f08c379a00000000000000000000000000000000000000000000000000000000081526004018080602001828103825260338152602001807f596f752063616e6e6f742066756e642061667465722074686520726573756c7481526020017f20686173206265656e2072656365697665642e0000000000000000000000000081525060400191505060405180910390fd5b80156106015734600860003373ffffffffffffffffffffffffffffffffffffffff1673ffffffffffffffffffffffffffffffffffffffff16815260200190815260200160002060008282540192505081905550346009600082825401925050819055505b50565b600660009054906101000a900473ffffffffffffffffffffffffffffffffffffffff1673ffffffffffffffffffffffffffffffffffffffff163373ffffffffffffffffffffffffffffffffffffffff1614151561066057600080fd5b600660009054906101000a900473ffffffffffffffffffffffffffffffffffffffff1673ffffffffffffffffffffffffffffffffffffffff167ff8df31144d9c2f0f6b59d69b8b98abd5459d07f2742c4df920b25aae33c6482060405160405180910390a26000600660006101000a81548173ffffffffffffffffffffffffffffffffffffffff021916908373ffffffffffffffffffffffffffffffffffffffff160217905550565b600660009054906101000a900473ffffffffffffffffffffffffffffffffffffffff1681565b8160056000826000191660001916815260200190815260200160002060009054906101000a900473ffffffffffffffffffffffffffffffffffffffff1673ffffffffffffffffffffffffffffffffffffffff163373ffffffffffffffffffffffffffffffffffffffff16141515610834576040517f08c379a00000000000000000000000000000000000000000000000000000000081526004018080602001828103825260288152602001807f536f75726365206d75737420626520746865206f7261636c65206f662074686581526020017f207265717565737400000000000000000000000000000000000000000000000081525060400191505060405180910390fd5b60056000826000191660001916815260200190815260200160002060006101000a81549073ffffffffffffffffffffffffffffffffffffffff021916905580600019167f7cc135e0cebb02c3480ae5d74d377283180a2601f8f644edf7987b009316c63a60405160405180910390a26001600c60006101000a81548160ff02191690831515021790555060008213156108e7576001600c60016101000a81548160ff021916908315150217905550610903565b6000600c60016101000a81548160ff0219169083151502179055505b505050565b6000610912611759565b600c60009054906101000a900460ff161515156109bd576040517f08c379a00000000000000000000000000000000000000000000000000000000081526004018080602001828103825260258152602001807f54686520726573756c742068617320616c7265616479206265656e207265636581526020017f697665642e00000000000000000000000000000000000000000000000000000081525060400191505060405180910390fd5b6109ed600b543063bda71d047c010000000000000000000000000000000000000000000000000000000002610b6f565b9050610a6e6040805190810160405280600281526020017f69700000000000000000000000000000000000000000000000000000000000008152506040805190810160405280600e81526020017f3139342e3139392e3130342e313400000000000000000000000000000000000081525083610ba09092919063ffffffff16565b610aed6040805190810160405280600881526020017f636f7079506174680000000000000000000000000000000000000000000000008152506040805190810160405280600e81526020017f636f6e6e656374696f6e2e69737000000000000000000000000000000000000081525083610ba09092919063ffffffff16565b610b01610af8610bd3565b82600a54610bfd565b91505090565b600660009054906101000a900473ffffffffffffffffffffffffffffffffffffffff1673ffffffffffffffffffffffffffffffffffffffff163373ffffffffffffffffffffffffffffffffffffffff16141515610b6357600080fd5b610b6c81610f89565b50565b610b77611759565b610b7f611759565b610b9685858584611085909392919063ffffffff16565b9150509392505050565b610bb782846080015161113f90919063ffffffff16565b610bce81846080015161113f90919063ffffffff16565b505050565b6000600360009054906101000a900473ffffffffffffffffffffffffffffffffffffffff16905090565b600030600454604051602001808373ffffffffffffffffffffffffffffffffffffffff1673ffffffffffffffffffffffffffffffffffffffff166c01000000000000000000000000028152601401828152602001925050506040516020818303038152906040526040518082805190602001908083835b602083101515610c995780518252602082019150602081019050602083039250610c74565b6001836020036101000a038019825116818451168082178552505050505050905001915050604051809103902090506004548360600181815250508360056000836000191660001916815260200190815260200160002060006101000a81548173ffffffffffffffffffffffffffffffffffffffff021916908373ffffffffffffffffffffffffffffffffffffffff16021790555080600019167fb5e6e01e79f91267dc17b4e6314d5d4d03593d2ceee0fbb452b750bd70ea5af960405160405180910390a2600260009054906101000a900473ffffffffffffffffffffffffffffffffffffffff1673ffffffffffffffffffffffffffffffffffffffff16634000aea08584610da887611164565b6040518463ffffffff167c0100000000000000000000000000000000000000000000000000000000028152600401808473ffffffffffffffffffffffffffffffffffffffff1673ffffffffffffffffffffffffffffffffffffffff16815260200183815260200180602001828103825283818151815260200191508051906020019080838360005b83811015610e4b578082015181840152602081019050610e30565b50505050905090810190601f168015610e785780820380516001836020036101000a031916815260200191505b50945050505050602060405180830381600087803b158015610e9957600080fd5b505af1158015610ead573d6000803e3d6000fd5b505050506040513d6020811015610ec357600080fd5b81019080805190602001909291905050501515610f6e576040517f08c379a00000000000000000000000000000000000000000000000000000000081526004018080602001828103825260238152602001807f756e61626c6520746f207472616e73666572416e6443616c6c20746f206f726181526020017f636c65000000000000000000000000000000000000000000000000000000000081525060400191505060405180910390fd5b60016004600082825401925050819055508090509392505050565b600073ffffffffffffffffffffffffffffffffffffffff168173ffffffffffffffffffffffffffffffffffffffff1614151515610fc557600080fd5b8073ffffffffffffffffffffffffffffffffffffffff16600660009054906101000a900473ffffffffffffffffffffffffffffffffffffffff1673ffffffffffffffffffffffffffffffffffffffff167f8be0079c531659141344cd1fd0a4f28419497f9722a3daafe3b4186f6b6457e060405160405180910390a380600660006101000a81548173ffffffffffffffffffffffffffffffffffffffff021916908373ffffffffffffffffffffffffffffffffffffffff16021790555050565b61108d611759565b61109d856080015161010061138f565b50838560000190600019169081600019168152505082856020019073ffffffffffffffffffffffffffffffffffffffff16908173ffffffffffffffffffffffffffffffffffffffff16815250508185604001907bffffffffffffffffffffffffffffffffffffffffffffffffffffffff191690817bffffffffffffffffffffffffffffffffffffffffffffffffffffffff191681525050849050949350505050565b61114c82600383516113e9565b61115f818361154790919063ffffffff16565b505050565b6060600360009054906101000a900473ffffffffffffffffffffffffffffffffffffffff1673ffffffffffffffffffffffffffffffffffffffff16634042994690507c01000000000000000000000000000000000000000000000000000000000260008084600001518560200151866040015187606001516001896080015160000151604051602401808973ffffffffffffffffffffffffffffffffffffffff1673ffffffffffffffffffffffffffffffffffffffff16815260200188815260200187600019166000191681526020018673ffffffffffffffffffffffffffffffffffffffff1673ffffffffffffffffffffffffffffffffffffffff168152602001857bffffffffffffffffffffffffffffffffffffffffffffffffffffffff19167bffffffffffffffffffffffffffffffffffffffffffffffffffffffff1916815260200184815260200183815260200180602001828103825283818151815260200191508051906020019080838360005b838110156112f25780820151818401526020810190506112d7565b50505050905090810190601f16801561131f5780820380516001836020036101000a031916815260200191505b509950505050505050505050604051602081830303815290604052907bffffffffffffffffffffffffffffffffffffffffffffffffffffffff19166020820180517bffffffffffffffffffffffffffffffffffffffffffffffffffffffff83818316178352505050509050919050565b6113976117c7565b60006020838115156113a557fe5b061415156113c2576020828115156113b957fe5b06602003820191505b81836020018181525050604051808452600081528281016020016040525082905092915050565b60178111151561141b576114158160058460ff169060020a0260ff16178461156990919063ffffffff16565b50611542565b60ff8111151561146257611445601860058460ff169060020a02178461156990919063ffffffff16565b5061145c816001856115899092919063ffffffff16565b50611541565b61ffff811115156114aa5761148d601960058460ff169060020a02178461156990919063ffffffff16565b506114a4816002856115899092919063ffffffff16565b50611540565b63ffffffff811115156114f4576114d7601a60058460ff169060020a02178461156990919063ffffffff16565b506114ee816004856115899092919063ffffffff16565b5061153f565b67ffffffffffffffff8111151561153e57611525601b60058460ff169060020a02178461156990919063ffffffff16565b5061153c816008856115899092919063ffffffff16565b505b5b5b5b5b505050565b61154f6117c7565b611561838460000151518485516115ab565b905092915050565b6115716117c7565b6115818384600001515184611668565b905092915050565b6115916117c7565b6115a28485600001515185856116b8565b90509392505050565b6115b36117c7565b6000806000855185111515156115c857600080fd5b876020015185880111156115f3576115f28860026115ec8b602001518b8a01611719565b02611735565b5b87518051886020830101945080898801111561160f5788870182525b60208801935050505b60208510151561163d5781518352602083019250602082019150602085039450611618565b6001856020036101000a03905080198251168184511681811785525050879350505050949350505050565b6116706117c7565b83602001518310151561168f5761168e846002866020015102611735565b5b83518051602085830101848153818614156116ab576001820183525b5050508390509392505050565b6116c06117c7565b6000856020015185840111156116e0576116df86600287860102611735565b5b6001836101000a039050855183868201018583198251161781528151858801111561170b5784870182525b505085915050949350505050565b60008183111561172b5782905061172f565b8190505b92915050565b606082600001519050611748838361138f565b506117538382611547565b50505050565b60c06040519081016040528060008019168152602001600073ffffffffffffffffffffffffffffffffffffffff16815260200160007bffffffffffffffffffffffffffffffffffffffffffffffffffffffff19168152602001600081526020016117c16117e1565b81525090565b604080519081016040528060608152602001600081525090565b6040805190810160405280606081526020016000815250905600a165627a7a72305820ce777433bc880b949e5b29f679232410d84cae95300aabd69c0f33d280cc05a20029",
  "source": "pragma solidity 0.4.24;\n\nimport \"../node_modules/chainlink/contracts/ChainlinkClient.sol\";\nimport \"../node_modules/openzeppelin-solidity/contracts/ownership/Ownable.sol\";\n\nimport \"./storage/DrStorage.sol\";\nimport \"./storage/DrConstants.sol\";\n\n\ncontract DisasterRiskInsurance is ChainlinkClient, Ownable, DrStorage, DrConstants {\n    mapping(address => uint256) private fundTrue;\n    uint256 public totalFundTrue;\n\n    uint256 private oraclePaymentAmount;\n    bytes32 private jobId;\n\n    bool public resultReceived;\n    bool public result;\n\n    constructor(\n        address _link,\n        address _oracle,\n        bytes32 _jobId,\n        uint256 _oraclePaymentAmount\n        )\n    Ownable()\n    public\n    {\n        setChainlinkToken(_link);\n        setChainlinkOracle(_oracle);\n        jobId = _jobId;\n        oraclePaymentAmount = _oraclePaymentAmount;\n    }\n\n    function fundInsurance(bool fundOutcome) external payable\n    {\n        require(!resultReceived, \"You cannot fund after the result has been received.\");\n        if (fundOutcome) {\n            fundTrue[msg.sender] += msg.value;\n            totalFundTrue += msg.value;\n        }\n\n    }\n\n    function withdrawFromFundPool() external\n    {\n        require(resultReceived, \"You cannot withdraw before the result has been received.\");\n\n        if (result) {\n            msg.sender.transfer(((totalFundTrue) * fundTrue[msg.sender]) / totalFundTrue);\n            fundTrue[msg.sender] = 0;\n        }\n    }\n\n    // You probably do not want onlyOwner here\n    // But then, you need some mechanism to prevent people from spamming this\n    function requestResultOfDisasterRisk() external returns (bytes32 requestId)    // Without onlyOwner\n    //function requestResult() external onlyOwner returns (bytes32 requestId)\n    {\n        require(!resultReceived, \"The result has already been received.\");\n        Chainlink.Request memory req = buildChainlinkRequest(jobId, this, this.fulfill.selector);\n        // Using Ipstack - IP geolocation API\n        req.add(\"ip\", \"194.199.104.14\");\n        req.add(\"copyPath\", \"connection.isp\");\n        requestId = sendChainlinkRequestTo(chainlinkOracleAddress(), req, oraclePaymentAmount);\n    }\n\n    function getFundAmount(bool outcome) external view returns (uint256 fundAmount) \n    {\n        if (outcome) {\n            fundAmount = fundTrue[msg.sender];\n        }\n        \n    }\n\n    function fulfill(bytes32 _requestId, int256 data)\n    public\n    recordChainlinkFulfillment(_requestId)\n    {\n        resultReceived = true;\n        if (data > 0)\n        {\n            result = true;\n        }\n        else\n        {\n            result = false;\n        }\n    }\n}\n",
  "sourcePath": "/Users/unomasanori/projects/DEMO_MVP/Honeycomb_Hackathon/disaster-risk-insurance/contracts/DisasterRiskInsurance.sol",
  "compiler": {
    "name": "solc",
    "version": "0.4.24+commit.e67f0147.Emscripten.clang"
  },
  "schemaVersion": "3.0.19",
  "updatedAt": "2019-11-25T08:38:10.726Z",
  "networkType": "ethereum",
  "devdoc": {
    "methods": {
      "renounceOwnership()": {
        "details": "Allows the current owner to relinquish control of the contract."
      },
      "transferOwnership(address)": {
        "details": "Allows the current owner to transfer control of the contract to a newOwner.",
        "params": {
          "_newOwner": "The address to transfer ownership to."
        }
      }
    }
  },
  "userdoc": {
    "methods": {
      "renounceOwnership()": {
        "notice": "Renouncing to ownership will leave the contract without an owner. It will not be possible to call the functions with the `onlyOwner` modifier anymore."
      }
    }
  }
}