{
  "contractName": "DisasterRiskInsurance",
  "abi": [
    {
      "constant": true,
      "inputs": [],
      "name": "totalFundTrue",
      "outputs": [
        {
          "name": "",
          "type": "uint256"
        }
      ],
      "payable": false,
      "stateMutability": "view",
      "type": "function"
    },
    {
      "constant": true,
      "inputs": [],
      "name": "resultReceived",
      "outputs": [
        {
          "name": "",
          "type": "bool"
        }
      ],
      "payable": false,
      "stateMutability": "view",
      "type": "function"
    },
    {
      "constant": true,
      "inputs": [],
      "name": "resultCapital",
      "outputs": [
        {
          "name": "",
          "type": "bytes32"
        }
      ],
      "payable": false,
      "stateMutability": "view",
      "type": "function"
    },
    {
      "constant": true,
      "inputs": [],
      "name": "resultLatitude",
      "outputs": [
        {
          "name": "",
          "type": "int256"
        }
      ],
      "payable": false,
      "stateMutability": "view",
      "type": "function"
    },
    {
      "constant": false,
      "inputs": [],
      "name": "renounceOwnership",
      "outputs": [],
      "payable": false,
      "stateMutability": "nonpayable",
      "type": "function"
    },
    {
      "constant": true,
      "inputs": [],
      "name": "resultLongitude",
      "outputs": [
        {
          "name": "",
          "type": "int256"
        }
      ],
      "payable": false,
      "stateMutability": "view",
      "type": "function"
    },
    {
      "constant": true,
      "inputs": [],
      "name": "owner",
      "outputs": [
        {
          "name": "",
          "type": "address"
        }
      ],
      "payable": false,
      "stateMutability": "view",
      "type": "function"
    },
    {
      "constant": true,
      "inputs": [
        {
          "name": "",
          "type": "uint256"
        }
      ],
      "name": "beneficiaries",
      "outputs": [
        {
          "name": "walletAddr",
          "type": "address"
        },
        {
          "name": "totalFundAmount",
          "type": "uint256"
        },
        {
          "name": "ipAddress",
          "type": "string"
        },
        {
          "name": "isDisaster",
          "type": "bool"
        }
      ],
      "payable": false,
      "stateMutability": "view",
      "type": "function"
    },
    {
      "constant": false,
      "inputs": [
        {
          "name": "_newOwner",
          "type": "address"
        }
      ],
      "name": "transferOwnership",
      "outputs": [],
      "payable": false,
      "stateMutability": "nonpayable",
      "type": "function"
    },
    {
      "inputs": [
        {
          "name": "_link",
          "type": "address"
        },
        {
          "name": "_oracle",
          "type": "address"
        },
        {
          "name": "_jobId_1",
          "type": "bytes32"
        },
        {
          "name": "_jobId_2",
          "type": "bytes32"
        },
        {
          "name": "_oraclePaymentAmount",
          "type": "uint256"
        }
      ],
      "payable": false,
      "stateMutability": "nonpayable",
      "type": "constructor"
    },
    {
      "anonymous": false,
      "inputs": [
        {
          "indexed": true,
          "name": "previousOwner",
          "type": "address"
        }
      ],
      "name": "OwnershipRenounced",
      "type": "event"
    },
    {
      "anonymous": false,
      "inputs": [
        {
          "indexed": true,
          "name": "previousOwner",
          "type": "address"
        },
        {
          "indexed": true,
          "name": "newOwner",
          "type": "address"
        }
      ],
      "name": "OwnershipTransferred",
      "type": "event"
    },
    {
      "anonymous": false,
      "inputs": [
        {
          "indexed": false,
          "name": "requestId",
          "type": "bytes32"
        }
      ],
      "name": "RequestResultOfDisasterRisk",
      "type": "event"
    },
    {
      "anonymous": false,
      "inputs": [
        {
          "indexed": false,
          "name": "requestId",
          "type": "bytes32"
        },
        {
          "indexed": false,
          "name": "exampleName",
          "type": "string"
        },
        {
          "indexed": false,
          "name": "exampleAddr",
          "type": "address"
        }
      ],
      "name": "ExampleEvent",
      "type": "event"
    },
    {
      "anonymous": false,
      "inputs": [
        {
          "indexed": true,
          "name": "id",
          "type": "bytes32"
        }
      ],
      "name": "ChainlinkRequested",
      "type": "event"
    },
    {
      "anonymous": false,
      "inputs": [
        {
          "indexed": true,
          "name": "id",
          "type": "bytes32"
        }
      ],
      "name": "ChainlinkFulfilled",
      "type": "event"
    },
    {
      "anonymous": false,
      "inputs": [
        {
          "indexed": true,
          "name": "id",
          "type": "bytes32"
        }
      ],
      "name": "ChainlinkCancelled",
      "type": "event"
    },
    {
      "constant": false,
      "inputs": [
        {
          "name": "fundOutcome",
          "type": "bool"
        }
      ],
      "name": "fundInsurance",
      "outputs": [],
      "payable": true,
      "stateMutability": "payable",
      "type": "function"
    },
    {
      "constant": false,
      "inputs": [],
      "name": "withdrawFromFundPool",
      "outputs": [],
      "payable": false,
      "stateMutability": "nonpayable",
      "type": "function"
    },
    {
      "constant": false,
      "inputs": [
        {
          "name": "ipAddress",
          "type": "string"
        }
      ],
      "name": "requestResultOfCapital",
      "outputs": [
        {
          "name": "requestId",
          "type": "bytes32"
        }
      ],
      "payable": false,
      "stateMutability": "nonpayable",
      "type": "function"
    },
    {
      "constant": false,
      "inputs": [
        {
          "name": "ipAddress",
          "type": "string"
        }
      ],
      "name": "requestResultOfLatitude",
      "outputs": [
        {
          "name": "requestId",
          "type": "bytes32"
        }
      ],
      "payable": false,
      "stateMutability": "nonpayable",
      "type": "function"
    },
    {
      "constant": false,
      "inputs": [
        {
          "name": "ipAddress",
          "type": "string"
        }
      ],
      "name": "requestResultOfLongitude",
      "outputs": [
        {
          "name": "requestId",
          "type": "bytes32"
        }
      ],
      "payable": false,
      "stateMutability": "nonpayable",
      "type": "function"
    },
    {
      "constant": true,
      "inputs": [
        {
          "name": "outcome",
          "type": "bool"
        }
      ],
      "name": "getFundAmount",
      "outputs": [
        {
          "name": "fundAmount",
          "type": "uint256"
        }
      ],
      "payable": false,
      "stateMutability": "view",
      "type": "function"
    },
    {
      "constant": false,
      "inputs": [
        {
          "name": "_requestId",
          "type": "bytes32"
        },
        {
          "name": "data",
          "type": "bytes32"
        }
      ],
      "name": "fulfill",
      "outputs": [],
      "payable": false,
      "stateMutability": "nonpayable",
      "type": "function"
    },
    {
      "constant": false,
      "inputs": [
        {
          "name": "_requestId",
          "type": "bytes32"
        },
        {
          "name": "data",
          "type": "bytes32"
        }
      ],
      "name": "fulfill_capital",
      "outputs": [],
      "payable": false,
      "stateMutability": "nonpayable",
      "type": "function"
    },
    {
      "constant": false,
      "inputs": [
        {
          "name": "_requestId",
          "type": "bytes32"
        },
        {
          "name": "data",
          "type": "int256"
        }
      ],
      "name": "fulfill_latitude",
      "outputs": [],
      "payable": false,
      "stateMutability": "nonpayable",
      "type": "function"
    },
    {
      "constant": false,
      "inputs": [
        {
          "name": "_requestId",
          "type": "bytes32"
        },
        {
          "name": "data",
          "type": "int256"
        }
      ],
      "name": "fulfill_longitude",
      "outputs": [],
      "payable": false,
      "stateMutability": "nonpayable",
      "type": "function"
    }
  ],
  "bytecode": "0x6080604052600160045534801561001557600080fd5b5060405160a080620023ba833981018060405281019080805190602001909291908051906020019092919080519060200190929190805190602001909291908051906020019092919050505033600660006101000a81548173ffffffffffffffffffffffffffffffffffffffff021916908373ffffffffffffffffffffffffffffffffffffffff1602179055506100ba856100f9640100000000026401000000009004565b6100d28461013d640100000000026401000000009004565b82600d816000191690555081600e816000191690555080600c819055505050505050610181565b80600260006101000a81548173ffffffffffffffffffffffffffffffffffffffff021916908373ffffffffffffffffffffffffffffffffffffffff16021790555050565b80600360006101000a81548173ffffffffffffffffffffffffffffffffffffffff021916908373ffffffffffffffffffffffffffffffffffffffff16021790555050565b61222980620001916000396000f300608060405260043610610107576000357c0100000000000000000000000000000000000000000000000000000000900463ffffffff168063038dad221461010c578063042f2b65146101235780630dece4601461016257806314f421ac146101a557806347549f4c146101fc5780634cd38cc2146102275780634f54d383146102565780636963a524146102895780636a5b3f0a146102b45780636fa06921146102ef578063715018a614610311578063753b478514610328578063767321b81461037f5780637df35800146103ba5780638da5cb5b146103e5578063efeb5e581461043c578063f1afc21114610527578063f2fde38b1461057e578063f8f1d8c4146105c1575b600080fd5b34801561011857600080fd5b50610121610600565b005b34801561012f57600080fd5b5061016060048036038101908080356000191690602001909291908035600019169060200190929190505050610788565b005b34801561016e57600080fd5b5061018f600480360381019080803515159060200190929190505050610927565b6040518082815260200191505060405180910390f35b3480156101b157600080fd5b506101de600480360381019080803590602001908201803590602001919091929391929390505050610977565b60405180826000191660001916815260200191505060405180910390f35b34801561020857600080fd5b50610211610acb565b6040518082815260200191505060405180910390f35b34801561023357600080fd5b5061023c610ad1565b604051808215151515815260200191505060405180910390f35b34801561026257600080fd5b5061026b610ae4565b60405180826000191660001916815260200191505060405180910390f35b34801561029557600080fd5b5061029e610aea565b6040518082815260200191505060405180910390f35b3480156102c057600080fd5b506102ed600480360381019080803560001916906020019092919080359060200190929190505050610af0565b005b61030f600480360381019080803515159060200190929190505050610c8b565b005b34801561031d57600080fd5b50610326610cf2565b005b34801561033457600080fd5b50610361600480360381019080803590602001908201803590602001919091929391929390505050610df7565b60405180826000191660001916815260200191505060405180910390f35b34801561038b57600080fd5b506103b8600480360381019080803560001916906020019092919080359060200190929190505050610f4b565b005b3480156103c657600080fd5b506103cf6110e6565b6040518082815260200191505060405180910390f35b3480156103f157600080fd5b506103fa6110ec565b604051808273ffffffffffffffffffffffffffffffffffffffff1673ffffffffffffffffffffffffffffffffffffffff16815260200191505060405180910390f35b34801561044857600080fd5b5061046760048036038101908080359060200190929190505050611112565b604051808573ffffffffffffffffffffffffffffffffffffffff1673ffffffffffffffffffffffffffffffffffffffff1681526020018481526020018060200183151515158152602001828103825284818151815260200191508051906020019080838360005b838110156104e95780820151818401526020810190506104ce565b50505050905090810190601f1680156105165780820380516001836020036101000a031916815260200191505b509550505050505060405180910390f35b34801561053357600080fd5b50610560600480360381019080803590602001908201803590602001919091929391929390505050611216565b60405180826000191660001916815260200191505060405180910390f35b34801561058a57600080fd5b506105bf600480360381019080803573ffffffffffffffffffffffffffffffffffffffff16906020019092919050505061136a565b005b3480156105cd57600080fd5b506105fe600480360381019080803560001916906020019092919080356000191690602001909291905050506113d2565b005b600f60009054906101000a900460ff1615156106aa576040517f08c379a00000000000000000000000000000000000000000000000000000000081526004018080602001828103825260388152602001807f596f752063616e6e6f74207769746864726177206265666f726520746865207281526020017f6573756c7420686173206265656e2072656365697665642e000000000000000081525060400191505060405180910390fd5b3373ffffffffffffffffffffffffffffffffffffffff166108fc600b54600960003373ffffffffffffffffffffffffffffffffffffffff1673ffffffffffffffffffffffffffffffffffffffff16815260200190815260200160002054600b540281151561071457fe5b049081150290604051600060405180830381858888f19350505050158015610740573d6000803e3d6000fd5b506000600960003373ffffffffffffffffffffffffffffffffffffffff1673ffffffffffffffffffffffffffffffffffffffff16815260200190815260200160002081905550565b8160056000826000191660001916815260200190815260200160002060009054906101000a900473ffffffffffffffffffffffffffffffffffffffff1673ffffffffffffffffffffffffffffffffffffffff163373ffffffffffffffffffffffffffffffffffffffff1614151561088d576040517f08c379a00000000000000000000000000000000000000000000000000000000081526004018080602001828103825260288152602001807f536f75726365206d75737420626520746865206f7261636c65206f662074686581526020017f207265717565737400000000000000000000000000000000000000000000000081525060400191505060405180910390fd5b60056000826000191660001916815260200190815260200160002060006101000a81549073ffffffffffffffffffffffffffffffffffffffff021916905580600019167f7cc135e0cebb02c3480ae5d74d377283180a2601f8f644edf7987b009316c63a60405160405180910390a26001600f60006101000a81548160ff0219169083151502179055508160108160001916905550505050565b6000811561097257600960003373ffffffffffffffffffffffffffffffffffffffff1673ffffffffffffffffffffffffffffffffffffffff1681526020019081526020016000205490505b919050565b600061098161215b565b6109b1600e543063767321b87c010000000000000000000000000000000000000000000000000000000002611571565b9050610a2f6040805190810160405280600281526020017f697000000000000000000000000000000000000000000000000000000000000081525085858080601f016020809104026020016040519081016040528093929190818152602001838380828437820191505050505050836115a29092919063ffffffff16565b610aae6040805190810160405280600881526020017f636f7079506174680000000000000000000000000000000000000000000000008152506040805190810160405280600881526020017f6c61746974756465000000000000000000000000000000000000000000000000815250836115a29092919063ffffffff16565b610ac2610ab96115d5565b82600c546115ff565b91505092915050565b600b5481565b600f60009054906101000a900460ff1681565b60105481565b60115481565b8160056000826000191660001916815260200190815260200160002060009054906101000a900473ffffffffffffffffffffffffffffffffffffffff1673ffffffffffffffffffffffffffffffffffffffff163373ffffffffffffffffffffffffffffffffffffffff16141515610bf5576040517f08c379a00000000000000000000000000000000000000000000000000000000081526004018080602001828103825260288152602001807f536f75726365206d75737420626520746865206f7261636c65206f662074686581526020017f207265717565737400000000000000000000000000000000000000000000000081525060400191505060405180910390fd5b60056000826000191660001916815260200190815260200160002060006101000a81549073ffffffffffffffffffffffffffffffffffffffff021916905580600019167f7cc135e0cebb02c3480ae5d74d377283180a2601f8f644edf7987b009316c63a60405160405180910390a26001600f60006101000a81548160ff02191690831515021790555081601281905550505050565b8015610cef5734600960003373ffffffffffffffffffffffffffffffffffffffff1673ffffffffffffffffffffffffffffffffffffffff1681526020019081526020016000206000828254019250508190555034600b600082825401925050819055505b50565b600660009054906101000a900473ffffffffffffffffffffffffffffffffffffffff1673ffffffffffffffffffffffffffffffffffffffff163373ffffffffffffffffffffffffffffffffffffffff16141515610d4e57600080fd5b600660009054906101000a900473ffffffffffffffffffffffffffffffffffffffff1673ffffffffffffffffffffffffffffffffffffffff167ff8df31144d9c2f0f6b59d69b8b98abd5459d07f2742c4df920b25aae33c6482060405160405180910390a26000600660006101000a81548173ffffffffffffffffffffffffffffffffffffffff021916908373ffffffffffffffffffffffffffffffffffffffff160217905550565b6000610e0161215b565b610e31600d543063f8f1d8c47c010000000000000000000000000000000000000000000000000000000002611571565b9050610eaf6040805190810160405280600281526020017f697000000000000000000000000000000000000000000000000000000000000081525085858080601f016020809104026020016040519081016040528093929190818152602001838380828437820191505050505050836115a29092919063ffffffff16565b610f2e6040805190810160405280600881526020017f636f7079506174680000000000000000000000000000000000000000000000008152506040805190810160405280601081526020017f6c6f636174696f6e2e6361706974616c00000000000000000000000000000000815250836115a29092919063ffffffff16565b610f42610f396115d5565b82600c546115ff565b91505092915050565b8160056000826000191660001916815260200190815260200160002060009054906101000a900473ffffffffffffffffffffffffffffffffffffffff1673ffffffffffffffffffffffffffffffffffffffff163373ffffffffffffffffffffffffffffffffffffffff16141515611050576040517f08c379a00000000000000000000000000000000000000000000000000000000081526004018080602001828103825260288152602001807f536f75726365206d75737420626520746865206f7261636c65206f662074686581526020017f207265717565737400000000000000000000000000000000000000000000000081525060400191505060405180910390fd5b60056000826000191660001916815260200190815260200160002060006101000a81549073ffffffffffffffffffffffffffffffffffffffff021916905580600019167f7cc135e0cebb02c3480ae5d74d377283180a2601f8f644edf7987b009316c63a60405160405180910390a26001600f60006101000a81548160ff02191690831515021790555081601181905550505050565b60125481565b600660009054906101000a900473ffffffffffffffffffffffffffffffffffffffff1681565b60078181548110151561112157fe5b90600052602060002090600402016000915090508060000160009054906101000a900473ffffffffffffffffffffffffffffffffffffffff1690806001015490806002018054600181600116156101000203166002900480601f0160208091040260200160405190810160405280929190818152602001828054600181600116156101000203166002900480156111f95780601f106111ce576101008083540402835291602001916111f9565b820191906000526020600020905b8154815290600101906020018083116111dc57829003601f168201915b5050505050908060030160009054906101000a900460ff16905084565b600061122061215b565b611250600e5430636a5b3f0a7c010000000000000000000000000000000000000000000000000000000002611571565b90506112ce6040805190810160405280600281526020017f697000000000000000000000000000000000000000000000000000000000000081525085858080601f016020809104026020016040519081016040528093929190818152602001838380828437820191505050505050836115a29092919063ffffffff16565b61134d6040805190810160405280600881526020017f636f7079506174680000000000000000000000000000000000000000000000008152506040805190810160405280600981526020017f6c6f6e6769747564650000000000000000000000000000000000000000000000815250836115a29092919063ffffffff16565b6113616113586115d5565b82600c546115ff565b91505092915050565b600660009054906101000a900473ffffffffffffffffffffffffffffffffffffffff1673ffffffffffffffffffffffffffffffffffffffff163373ffffffffffffffffffffffffffffffffffffffff161415156113c657600080fd5b6113cf8161198b565b50565b8160056000826000191660001916815260200190815260200160002060009054906101000a900473ffffffffffffffffffffffffffffffffffffffff1673ffffffffffffffffffffffffffffffffffffffff163373ffffffffffffffffffffffffffffffffffffffff161415156114d7576040517f08c379a00000000000000000000000000000000000000000000000000000000081526004018080602001828103825260288152602001807f536f75726365206d75737420626520746865206f7261636c65206f662074686581526020017f207265717565737400000000000000000000000000000000000000000000000081525060400191505060405180910390fd5b60056000826000191660001916815260200190815260200160002060006101000a81549073ffffffffffffffffffffffffffffffffffffffff021916905580600019167f7cc135e0cebb02c3480ae5d74d377283180a2601f8f644edf7987b009316c63a60405160405180910390a26001600f60006101000a81548160ff0219169083151502179055508160108160001916905550505050565b61157961215b565b61158161215b565b61159885858584611a87909392919063ffffffff16565b9150509392505050565b6115b9828460800151611b4190919063ffffffff16565b6115d0818460800151611b4190919063ffffffff16565b505050565b6000600360009054906101000a900473ffffffffffffffffffffffffffffffffffffffff16905090565b600030600454604051602001808373ffffffffffffffffffffffffffffffffffffffff1673ffffffffffffffffffffffffffffffffffffffff166c01000000000000000000000000028152601401828152602001925050506040516020818303038152906040526040518082805190602001908083835b60208310151561169b5780518252602082019150602081019050602083039250611676565b6001836020036101000a038019825116818451168082178552505050505050905001915050604051809103902090506004548360600181815250508360056000836000191660001916815260200190815260200160002060006101000a81548173ffffffffffffffffffffffffffffffffffffffff021916908373ffffffffffffffffffffffffffffffffffffffff16021790555080600019167fb5e6e01e79f91267dc17b4e6314d5d4d03593d2ceee0fbb452b750bd70ea5af960405160405180910390a2600260009054906101000a900473ffffffffffffffffffffffffffffffffffffffff1673ffffffffffffffffffffffffffffffffffffffff16634000aea085846117aa87611b66565b6040518463ffffffff167c0100000000000000000000000000000000000000000000000000000000028152600401808473ffffffffffffffffffffffffffffffffffffffff1673ffffffffffffffffffffffffffffffffffffffff16815260200183815260200180602001828103825283818151815260200191508051906020019080838360005b8381101561184d578082015181840152602081019050611832565b50505050905090810190601f16801561187a5780820380516001836020036101000a031916815260200191505b50945050505050602060405180830381600087803b15801561189b57600080fd5b505af11580156118af573d6000803e3d6000fd5b505050506040513d60208110156118c557600080fd5b81019080805190602001909291905050501515611970576040517f08c379a00000000000000000000000000000000000000000000000000000000081526004018080602001828103825260238152602001807f756e61626c6520746f207472616e73666572416e6443616c6c20746f206f726181526020017f636c65000000000000000000000000000000000000000000000000000000000081525060400191505060405180910390fd5b60016004600082825401925050819055508090509392505050565b600073ffffffffffffffffffffffffffffffffffffffff168173ffffffffffffffffffffffffffffffffffffffff16141515156119c757600080fd5b8073ffffffffffffffffffffffffffffffffffffffff16600660009054906101000a900473ffffffffffffffffffffffffffffffffffffffff1673ffffffffffffffffffffffffffffffffffffffff167f8be0079c531659141344cd1fd0a4f28419497f9722a3daafe3b4186f6b6457e060405160405180910390a380600660006101000a81548173ffffffffffffffffffffffffffffffffffffffff021916908373ffffffffffffffffffffffffffffffffffffffff16021790555050565b611a8f61215b565b611a9f8560800151610100611d91565b50838560000190600019169081600019168152505082856020019073ffffffffffffffffffffffffffffffffffffffff16908173ffffffffffffffffffffffffffffffffffffffff16815250508185604001907bffffffffffffffffffffffffffffffffffffffffffffffffffffffff191690817bffffffffffffffffffffffffffffffffffffffffffffffffffffffff191681525050849050949350505050565b611b4e8260038351611deb565b611b618183611f4990919063ffffffff16565b505050565b6060600360009054906101000a900473ffffffffffffffffffffffffffffffffffffffff1673ffffffffffffffffffffffffffffffffffffffff16634042994690507c01000000000000000000000000000000000000000000000000000000000260008084600001518560200151866040015187606001516001896080015160000151604051602401808973ffffffffffffffffffffffffffffffffffffffff1673ffffffffffffffffffffffffffffffffffffffff16815260200188815260200187600019166000191681526020018673ffffffffffffffffffffffffffffffffffffffff1673ffffffffffffffffffffffffffffffffffffffff168152602001857bffffffffffffffffffffffffffffffffffffffffffffffffffffffff19167bffffffffffffffffffffffffffffffffffffffffffffffffffffffff1916815260200184815260200183815260200180602001828103825283818151815260200191508051906020019080838360005b83811015611cf4578082015181840152602081019050611cd9565b50505050905090810190601f168015611d215780820380516001836020036101000a031916815260200191505b509950505050505050505050604051602081830303815290604052907bffffffffffffffffffffffffffffffffffffffffffffffffffffffff19166020820180517bffffffffffffffffffffffffffffffffffffffffffffffffffffffff83818316178352505050509050919050565b611d996121c9565b6000602083811515611da757fe5b06141515611dc457602082811515611dbb57fe5b06602003820191505b81836020018181525050604051808452600081528281016020016040525082905092915050565b601781111515611e1d57611e178160058460ff169060020a0260ff161784611f6b90919063ffffffff16565b50611f44565b60ff81111515611e6457611e47601860058460ff169060020a021784611f6b90919063ffffffff16565b50611e5e81600185611f8b9092919063ffffffff16565b50611f43565b61ffff81111515611eac57611e8f601960058460ff169060020a021784611f6b90919063ffffffff16565b50611ea681600285611f8b9092919063ffffffff16565b50611f42565b63ffffffff81111515611ef657611ed9601a60058460ff169060020a021784611f6b90919063ffffffff16565b50611ef081600485611f8b9092919063ffffffff16565b50611f41565b67ffffffffffffffff81111515611f4057611f27601b60058460ff169060020a021784611f6b90919063ffffffff16565b50611f3e81600885611f8b9092919063ffffffff16565b505b5b5b5b5b505050565b611f516121c9565b611f6383846000015151848551611fad565b905092915050565b611f736121c9565b611f83838460000151518461206a565b905092915050565b611f936121c9565b611fa48485600001515185856120ba565b90509392505050565b611fb56121c9565b600080600085518511151515611fca57600080fd5b87602001518588011115611ff557611ff4886002611fee8b602001518b8a0161211b565b02612137565b5b8751805188602083010194508089880111156120115788870182525b60208801935050505b60208510151561203f578151835260208301925060208201915060208503945061201a565b6001856020036101000a03905080198251168184511681811785525050879350505050949350505050565b6120726121c9565b83602001518310151561209157612090846002866020015102612137565b5b83518051602085830101848153818614156120ad576001820183525b5050508390509392505050565b6120c26121c9565b6000856020015185840111156120e2576120e186600287860102612137565b5b6001836101000a039050855183868201018583198251161781528151858801111561210d5784870182525b505085915050949350505050565b60008183111561212d57829050612131565b8190505b92915050565b60608260000151905061214a8383611d91565b506121558382611f49565b50505050565b60c06040519081016040528060008019168152602001600073ffffffffffffffffffffffffffffffffffffffff16815260200160007bffffffffffffffffffffffffffffffffffffffffffffffffffffffff19168152602001600081526020016121c36121e3565b81525090565b604080519081016040528060608152602001600081525090565b6040805190810160405280606081526020016000815250905600a165627a7a72305820a828ac2b998fef3f737b874c0b0c05d2fc40da132d1fef28d9b1fc925e81baff0029",
  "source": "pragma solidity 0.4.24;\n\nimport \"../node_modules/chainlink/contracts/ChainlinkClient.sol\";\nimport \"../node_modules/openzeppelin-solidity/contracts/ownership/Ownable.sol\";\n\nimport \"./storage/DrStorage.sol\";\nimport \"./storage/DrConstants.sol\";\n\n\ncontract DisasterRiskInsurance is ChainlinkClient, Ownable, DrStorage, DrConstants {\n    mapping(address => uint256) private fundTrue;\n    mapping(address => uint256) private fundFalse;\n    uint256 public totalFundTrue;\n\n    uint256 private oraclePaymentAmount;\n    bytes32 private jobId_1;  // This jobId's data-type is bytes32\n    bytes32 private jobId_2;  // This jobId's data-type is int256\n\n    bool public resultReceived;   // default value is \"false\"\n    bytes32 public resultCapital;       // This is result value of request\n    int256 public resultLatitude;       // This is result value of request\n    int256 public resultLongitude;     // This is result value of request\n\n    constructor(\n        address _link,\n        address _oracle,\n        bytes32 _jobId_1,  // This jobId's data-type is bytes32\n        bytes32 _jobId_2,  // This jobId's data-type is int256\n        uint256 _oraclePaymentAmount\n    ) Ownable() public \n    {\n        setChainlinkToken(_link);\n        setChainlinkOracle(_oracle);\n        jobId_1 = _jobId_1;  // This jobId's data-type is bytes32\n        jobId_2 = _jobId_2;  // This jobId's data-type is int256\n        oraclePaymentAmount = _oraclePaymentAmount;\n    }\n\n    function fundInsurance(bool fundOutcome) external payable\n    {\n        //require(!resultReceived, \"You cannot fund after the result has been received.\");\n        if (fundOutcome) {\n            fundTrue[msg.sender] += msg.value;\n            totalFundTrue += msg.value;\n        }\n\n    }\n\n    function withdrawFromFundPool() external {\n        require(resultReceived, \"You cannot withdraw before the result has been received.\");\n        msg.sender.transfer(((totalFundTrue) * fundTrue[msg.sender]) / totalFundTrue);\n            fundTrue[msg.sender] = 0;\n    }\n\n    // You probably do not want onlyOwner here\n    // But then, you need some mechanism to prevent people from spamming this\n    function requestResultOfCapital(string ipAddress) external returns (bytes32 requestId)    // Without onlyOwner\n    {\n        //require(!resultReceived, \"The result has already been received.\");\n\n        //Chainlink.Request memory req = buildChainlinkRequest(jobId_1, this, this.fulfill.selector);\n        Chainlink.Request memory req = buildChainlinkRequest(jobId_1, this, this.fulfill_capital.selector);\n        // Using Ipstack - IP geolocation API\n        req.add(\"ip\", ipAddress);\n        //req.add(\"ip\", \"194.199.104.14\");\n        req.add(\"copyPath\", \"location.capital\");\n        //req.add(\"copyPath\", \"connection.isp\");\n\n        requestId = sendChainlinkRequestTo(chainlinkOracleAddress(), req, oraclePaymentAmount);\n    }\n\n    function requestResultOfLatitude(string ipAddress) external returns (bytes32 requestId)    // Without onlyOwner\n    {\n        Chainlink.Request memory req = buildChainlinkRequest(jobId_2, this, this.fulfill_latitude.selector);\n        // Using Ipstack - IP geolocation API\n        req.add(\"ip\", ipAddress);\n        req.add(\"copyPath\", \"latitude\");\n        requestId = sendChainlinkRequestTo(chainlinkOracleAddress(), req, oraclePaymentAmount);\n    }\n\n    function requestResultOfLongitude(string ipAddress) external returns (bytes32 requestId)    // Without onlyOwner\n    {\n        Chainlink.Request memory req = buildChainlinkRequest(jobId_2, this, this.fulfill_longitude.selector);\n        // Using Ipstack - IP geolocation API\n        req.add(\"ip\", ipAddress);\n        req.add(\"copyPath\", \"longitude\");\n        requestId = sendChainlinkRequestTo(chainlinkOracleAddress(), req, oraclePaymentAmount);\n    }\n\n    function getFundAmount(bool outcome) external view returns (uint256 fundAmount) \n    {\n        if (outcome) {\n            fundAmount = fundTrue[msg.sender];\n        }\n        \n    }\n\n\n    function fulfill(bytes32 _requestId, bytes32 data)\n    public\n    recordChainlinkFulfillment(_requestId)\n    {\n        resultReceived = true;\n        resultCapital = data;\n        //result = data;\n    }\n\n    function fulfill_capital(bytes32 _requestId, bytes32 data)\n    public\n    recordChainlinkFulfillment(_requestId)\n    {\n        resultReceived = true;\n        resultCapital = data;\n        //result = data;\n    }\n\n    function fulfill_latitude(bytes32 _requestId, int256 data)\n    public\n    recordChainlinkFulfillment(_requestId)\n    {\n        resultReceived = true;\n        resultLatitude = data;\n        //result = data;\n    }\n\n    function fulfill_longitude(bytes32 _requestId, int256 data)\n    public\n    recordChainlinkFulfillment(_requestId)\n    {\n        resultReceived = true;\n        resultLongitude = data;\n        //result = data;\n    }\n}\n",
  "sourcePath": "/Users/unomasanori/projects/DEMO_MVP/Honeycomb_Hackathon/disaster-risk-insurance/contracts/DisasterRiskInsurance.sol",
  "compiler": {
    "name": "solc",
    "version": "0.4.24+commit.e67f0147.Emscripten.clang"
  },
  "schemaVersion": "3.0.19",
  "updatedAt": "2019-11-27T13:34:16.427Z",
  "networkType": "ethereum",
  "devdoc": {
    "methods": {
      "renounceOwnership()": {
        "details": "Allows the current owner to relinquish control of the contract."
      },
      "transferOwnership(address)": {
        "details": "Allows the current owner to transfer control of the contract to a newOwner.",
        "params": {
          "_newOwner": "The address to transfer ownership to."
        }
      }
    }
  },
  "userdoc": {
    "methods": {
      "renounceOwnership()": {
        "notice": "Renouncing to ownership will leave the contract without an owner. It will not be possible to call the functions with the `onlyOwner` modifier anymore."
      }
    }
  }
}