{
  "contractName": "DisasterRiskInsurance",
  "abi": [
    {
      "constant": true,
      "inputs": [],
      "name": "totalFundTrue",
      "outputs": [
        {
          "name": "",
          "type": "uint256"
        }
      ],
      "payable": false,
      "stateMutability": "view",
      "type": "function"
    },
    {
      "constant": true,
      "inputs": [],
      "name": "resultReceived",
      "outputs": [
        {
          "name": "",
          "type": "bool"
        }
      ],
      "payable": false,
      "stateMutability": "view",
      "type": "function"
    },
    {
      "constant": true,
      "inputs": [],
      "name": "result",
      "outputs": [
        {
          "name": "",
          "type": "bool"
        }
      ],
      "payable": false,
      "stateMutability": "view",
      "type": "function"
    },
    {
      "constant": false,
      "inputs": [],
      "name": "renounceOwnership",
      "outputs": [],
      "payable": false,
      "stateMutability": "nonpayable",
      "type": "function"
    },
    {
      "constant": true,
      "inputs": [],
      "name": "owner",
      "outputs": [
        {
          "name": "",
          "type": "address"
        }
      ],
      "payable": false,
      "stateMutability": "view",
      "type": "function"
    },
    {
      "constant": true,
      "inputs": [],
      "name": "totalFundFalse",
      "outputs": [
        {
          "name": "",
          "type": "uint256"
        }
      ],
      "payable": false,
      "stateMutability": "view",
      "type": "function"
    },
    {
      "constant": false,
      "inputs": [
        {
          "name": "_newOwner",
          "type": "address"
        }
      ],
      "name": "transferOwnership",
      "outputs": [],
      "payable": false,
      "stateMutability": "nonpayable",
      "type": "function"
    },
    {
      "inputs": [
        {
          "name": "_link",
          "type": "address"
        },
        {
          "name": "_oracle",
          "type": "address"
        },
        {
          "name": "_jobId",
          "type": "bytes32"
        },
        {
          "name": "_oraclePaymentAmount",
          "type": "uint256"
        }
      ],
      "payable": false,
      "stateMutability": "nonpayable",
      "type": "constructor"
    },
    {
      "anonymous": false,
      "inputs": [
        {
          "indexed": true,
          "name": "previousOwner",
          "type": "address"
        }
      ],
      "name": "OwnershipRenounced",
      "type": "event"
    },
    {
      "anonymous": false,
      "inputs": [
        {
          "indexed": true,
          "name": "previousOwner",
          "type": "address"
        },
        {
          "indexed": true,
          "name": "newOwner",
          "type": "address"
        }
      ],
      "name": "OwnershipTransferred",
      "type": "event"
    },
    {
      "anonymous": false,
      "inputs": [
        {
          "indexed": false,
          "name": "requestId",
          "type": "bytes32"
        }
      ],
      "name": "RequestResultOfDisasterRisk",
      "type": "event"
    },
    {
      "anonymous": false,
      "inputs": [
        {
          "indexed": false,
          "name": "requestId",
          "type": "bytes32"
        },
        {
          "indexed": false,
          "name": "exampleName",
          "type": "string"
        },
        {
          "indexed": false,
          "name": "exampleAddr",
          "type": "address"
        }
      ],
      "name": "ExampleEvent",
      "type": "event"
    },
    {
      "anonymous": false,
      "inputs": [
        {
          "indexed": true,
          "name": "id",
          "type": "bytes32"
        }
      ],
      "name": "ChainlinkRequested",
      "type": "event"
    },
    {
      "anonymous": false,
      "inputs": [
        {
          "indexed": true,
          "name": "id",
          "type": "bytes32"
        }
      ],
      "name": "ChainlinkFulfilled",
      "type": "event"
    },
    {
      "anonymous": false,
      "inputs": [
        {
          "indexed": true,
          "name": "id",
          "type": "bytes32"
        }
      ],
      "name": "ChainlinkCancelled",
      "type": "event"
    },
    {
      "constant": false,
      "inputs": [
        {
          "name": "fundOutcome",
          "type": "bool"
        }
      ],
      "name": "fundInsurance",
      "outputs": [],
      "payable": true,
      "stateMutability": "payable",
      "type": "function"
    },
    {
      "constant": false,
      "inputs": [],
      "name": "withdrawFromFundPool",
      "outputs": [],
      "payable": false,
      "stateMutability": "nonpayable",
      "type": "function"
    },
    {
      "constant": false,
      "inputs": [],
      "name": "requestResultOfDisasterRisk",
      "outputs": [
        {
          "name": "requestId",
          "type": "bytes32"
        }
      ],
      "payable": false,
      "stateMutability": "nonpayable",
      "type": "function"
    },
    {
      "constant": true,
      "inputs": [
        {
          "name": "outcome",
          "type": "bool"
        }
      ],
      "name": "getFundAmount",
      "outputs": [
        {
          "name": "fundAmount",
          "type": "uint256"
        }
      ],
      "payable": false,
      "stateMutability": "view",
      "type": "function"
    },
    {
      "constant": false,
      "inputs": [
        {
          "name": "_requestId",
          "type": "bytes32"
        },
        {
          "name": "data",
          "type": "int256"
        }
      ],
      "name": "fulfill",
      "outputs": [],
      "payable": false,
      "stateMutability": "nonpayable",
      "type": "function"
    }
  ],
  "bytecode": "0x6080604052600160045534801561001557600080fd5b506040516080806118c18339810180604052810190808051906020019092919080519060200190929190805190602001909291908051906020019092919050505033600660006101000a81548173ffffffffffffffffffffffffffffffffffffffff021916908373ffffffffffffffffffffffffffffffffffffffff1602179055506100af846100e2640100000000026401000000009004565b6100c783610126640100000000026401000000009004565b81600d816000191690555080600c819055505050505061016a565b80600260006101000a81548173ffffffffffffffffffffffffffffffffffffffff021916908373ffffffffffffffffffffffffffffffffffffffff16021790555050565b80600360006101000a81548173ffffffffffffffffffffffffffffffffffffffff021916908373ffffffffffffffffffffffffffffffffffffffff16021790555050565b611748806101796000396000f3006080604052600436106100ba576000357c0100000000000000000000000000000000000000000000000000000000900463ffffffff168063038dad22146100bf5780630dece460146100d657806347549f4c146101195780634cd38cc21461014457806365372147146101735780636fa06921146101a2578063715018a6146101c45780638da5cb5b146101db5780639a8ec2fb14610232578063bda71d041461025d578063c3eddc4314610298578063f2fde38b146102cb575b600080fd5b3480156100cb57600080fd5b506100d461030e565b005b3480156100e257600080fd5b506101036004803603810190808035151590602001909291905050506104e7565b6040518082815260200191505060405180910390f35b34801561012557600080fd5b5061012e610537565b6040518082815260200191505060405180910390f35b34801561015057600080fd5b5061015961053d565b604051808215151515815260200191505060405180910390f35b34801561017f57600080fd5b50610188610550565b604051808215151515815260200191505060405180910390f35b6101c2600480360381019080803515159060200190929190505050610563565b005b3480156101d057600080fd5b506101d96105ca565b005b3480156101e757600080fd5b506101f06106cf565b604051808273ffffffffffffffffffffffffffffffffffffffff1673ffffffffffffffffffffffffffffffffffffffff16815260200191505060405180910390f35b34801561023e57600080fd5b506102476106f5565b6040518082815260200191505060405180910390f35b34801561026957600080fd5b506102966004803603810190808035600019169060200190929190803590602001909291905050506106fb565b005b3480156102a457600080fd5b506102ad6108d4565b60405180826000191660001916815260200191505060405180910390f35b3480156102d757600080fd5b5061030c600480360381019080803573ffffffffffffffffffffffffffffffffffffffff169060200190929190505050610a28565b005b600e60019054906101000a900460ff1615610404573373ffffffffffffffffffffffffffffffffffffffff166108fc600a54600860003373ffffffffffffffffffffffffffffffffffffffff1673ffffffffffffffffffffffffffffffffffffffff16815260200190815260200160002054600a540281151561038d57fe5b049081150290604051600060405180830381858888f193505050501580156103b9573d6000803e3d6000fd5b506000600860003373ffffffffffffffffffffffffffffffffffffffff1673ffffffffffffffffffffffffffffffffffffffff168152602001908152602001600020819055506104e5565b3373ffffffffffffffffffffffffffffffffffffffff166108fc600b54600960003373ffffffffffffffffffffffffffffffffffffffff1673ffffffffffffffffffffffffffffffffffffffff16815260200190815260200160002054600b54600a54010281151561047257fe5b049081150290604051600060405180830381858888f1935050505015801561049e573d6000803e3d6000fd5b506000600960003373ffffffffffffffffffffffffffffffffffffffff1673ffffffffffffffffffffffffffffffffffffffff168152602001908152602001600020819055505b565b6000811561053257600860003373ffffffffffffffffffffffffffffffffffffffff1673ffffffffffffffffffffffffffffffffffffffff1681526020019081526020016000205490505b919050565b600a5481565b600e60009054906101000a900460ff1681565b600e60019054906101000a900460ff1681565b80156105c75734600860003373ffffffffffffffffffffffffffffffffffffffff1673ffffffffffffffffffffffffffffffffffffffff1681526020019081526020016000206000828254019250508190555034600a600082825401925050819055505b50565b600660009054906101000a900473ffffffffffffffffffffffffffffffffffffffff1673ffffffffffffffffffffffffffffffffffffffff163373ffffffffffffffffffffffffffffffffffffffff1614151561062657600080fd5b600660009054906101000a900473ffffffffffffffffffffffffffffffffffffffff1673ffffffffffffffffffffffffffffffffffffffff167ff8df31144d9c2f0f6b59d69b8b98abd5459d07f2742c4df920b25aae33c6482060405160405180910390a26000600660006101000a81548173ffffffffffffffffffffffffffffffffffffffff021916908373ffffffffffffffffffffffffffffffffffffffff160217905550565b600660009054906101000a900473ffffffffffffffffffffffffffffffffffffffff1681565b600b5481565b8160056000826000191660001916815260200190815260200160002060009054906101000a900473ffffffffffffffffffffffffffffffffffffffff1673ffffffffffffffffffffffffffffffffffffffff163373ffffffffffffffffffffffffffffffffffffffff16141515610800576040517f08c379a00000000000000000000000000000000000000000000000000000000081526004018080602001828103825260288152602001807f536f75726365206d75737420626520746865206f7261636c65206f662074686581526020017f207265717565737400000000000000000000000000000000000000000000000081525060400191505060405180910390fd5b60056000826000191660001916815260200190815260200160002060006101000a81549073ffffffffffffffffffffffffffffffffffffffff021916905580600019167f7cc135e0cebb02c3480ae5d74d377283180a2601f8f644edf7987b009316c63a60405160405180910390a26001600e60006101000a81548160ff02191690831515021790555060008213156108b3576001600e60016101000a81548160ff0219169083151502179055506108cf565b6000600e60016101000a81548160ff0219169083151502179055505b505050565b60006108de61167a565b61090e600d543063bda71d047c010000000000000000000000000000000000000000000000000000000002610a90565b905061098f6040805190810160405280600281526020017f69700000000000000000000000000000000000000000000000000000000000008152506040805190810160405280600e81526020017f3139342e3139392e3130342e313400000000000000000000000000000000000081525083610ac19092919063ffffffff16565b610a0e6040805190810160405280600881526020017f636f7079506174680000000000000000000000000000000000000000000000008152506040805190810160405280601081526020017f6c6f636174696f6e2e6361706974616c0000000000000000000000000000000081525083610ac19092919063ffffffff16565b610a22610a19610af4565b82600c54610b1e565b91505090565b600660009054906101000a900473ffffffffffffffffffffffffffffffffffffffff1673ffffffffffffffffffffffffffffffffffffffff163373ffffffffffffffffffffffffffffffffffffffff16141515610a8457600080fd5b610a8d81610eaa565b50565b610a9861167a565b610aa061167a565b610ab785858584610fa6909392919063ffffffff16565b9150509392505050565b610ad882846080015161106090919063ffffffff16565b610aef81846080015161106090919063ffffffff16565b505050565b6000600360009054906101000a900473ffffffffffffffffffffffffffffffffffffffff16905090565b600030600454604051602001808373ffffffffffffffffffffffffffffffffffffffff1673ffffffffffffffffffffffffffffffffffffffff166c01000000000000000000000000028152601401828152602001925050506040516020818303038152906040526040518082805190602001908083835b602083101515610bba5780518252602082019150602081019050602083039250610b95565b6001836020036101000a038019825116818451168082178552505050505050905001915050604051809103902090506004548360600181815250508360056000836000191660001916815260200190815260200160002060006101000a81548173ffffffffffffffffffffffffffffffffffffffff021916908373ffffffffffffffffffffffffffffffffffffffff16021790555080600019167fb5e6e01e79f91267dc17b4e6314d5d4d03593d2ceee0fbb452b750bd70ea5af960405160405180910390a2600260009054906101000a900473ffffffffffffffffffffffffffffffffffffffff1673ffffffffffffffffffffffffffffffffffffffff16634000aea08584610cc987611085565b6040518463ffffffff167c0100000000000000000000000000000000000000000000000000000000028152600401808473ffffffffffffffffffffffffffffffffffffffff1673ffffffffffffffffffffffffffffffffffffffff16815260200183815260200180602001828103825283818151815260200191508051906020019080838360005b83811015610d6c578082015181840152602081019050610d51565b50505050905090810190601f168015610d995780820380516001836020036101000a031916815260200191505b50945050505050602060405180830381600087803b158015610dba57600080fd5b505af1158015610dce573d6000803e3d6000fd5b505050506040513d6020811015610de457600080fd5b81019080805190602001909291905050501515610e8f576040517f08c379a00000000000000000000000000000000000000000000000000000000081526004018080602001828103825260238152602001807f756e61626c6520746f207472616e73666572416e6443616c6c20746f206f726181526020017f636c65000000000000000000000000000000000000000000000000000000000081525060400191505060405180910390fd5b60016004600082825401925050819055508090509392505050565b600073ffffffffffffffffffffffffffffffffffffffff168173ffffffffffffffffffffffffffffffffffffffff1614151515610ee657600080fd5b8073ffffffffffffffffffffffffffffffffffffffff16600660009054906101000a900473ffffffffffffffffffffffffffffffffffffffff1673ffffffffffffffffffffffffffffffffffffffff167f8be0079c531659141344cd1fd0a4f28419497f9722a3daafe3b4186f6b6457e060405160405180910390a380600660006101000a81548173ffffffffffffffffffffffffffffffffffffffff021916908373ffffffffffffffffffffffffffffffffffffffff16021790555050565b610fae61167a565b610fbe85608001516101006112b0565b50838560000190600019169081600019168152505082856020019073ffffffffffffffffffffffffffffffffffffffff16908173ffffffffffffffffffffffffffffffffffffffff16815250508185604001907bffffffffffffffffffffffffffffffffffffffffffffffffffffffff191690817bffffffffffffffffffffffffffffffffffffffffffffffffffffffff191681525050849050949350505050565b61106d826003835161130a565b611080818361146890919063ffffffff16565b505050565b6060600360009054906101000a900473ffffffffffffffffffffffffffffffffffffffff1673ffffffffffffffffffffffffffffffffffffffff16634042994690507c01000000000000000000000000000000000000000000000000000000000260008084600001518560200151866040015187606001516001896080015160000151604051602401808973ffffffffffffffffffffffffffffffffffffffff1673ffffffffffffffffffffffffffffffffffffffff16815260200188815260200187600019166000191681526020018673ffffffffffffffffffffffffffffffffffffffff1673ffffffffffffffffffffffffffffffffffffffff168152602001857bffffffffffffffffffffffffffffffffffffffffffffffffffffffff19167bffffffffffffffffffffffffffffffffffffffffffffffffffffffff1916815260200184815260200183815260200180602001828103825283818151815260200191508051906020019080838360005b838110156112135780820151818401526020810190506111f8565b50505050905090810190601f1680156112405780820380516001836020036101000a031916815260200191505b509950505050505050505050604051602081830303815290604052907bffffffffffffffffffffffffffffffffffffffffffffffffffffffff19166020820180517bffffffffffffffffffffffffffffffffffffffffffffffffffffffff83818316178352505050509050919050565b6112b86116e8565b60006020838115156112c657fe5b061415156112e3576020828115156112da57fe5b06602003820191505b81836020018181525050604051808452600081528281016020016040525082905092915050565b60178111151561133c576113368160058460ff169060020a0260ff16178461148a90919063ffffffff16565b50611463565b60ff8111151561138357611366601860058460ff169060020a02178461148a90919063ffffffff16565b5061137d816001856114aa9092919063ffffffff16565b50611462565b61ffff811115156113cb576113ae601960058460ff169060020a02178461148a90919063ffffffff16565b506113c5816002856114aa9092919063ffffffff16565b50611461565b63ffffffff81111515611415576113f8601a60058460ff169060020a02178461148a90919063ffffffff16565b5061140f816004856114aa9092919063ffffffff16565b50611460565b67ffffffffffffffff8111151561145f57611446601b60058460ff169060020a02178461148a90919063ffffffff16565b5061145d816008856114aa9092919063ffffffff16565b505b5b5b5b5b505050565b6114706116e8565b611482838460000151518485516114cc565b905092915050565b6114926116e8565b6114a28384600001515184611589565b905092915050565b6114b26116e8565b6114c38485600001515185856115d9565b90509392505050565b6114d46116e8565b6000806000855185111515156114e957600080fd5b876020015185880111156115145761151388600261150d8b602001518b8a0161163a565b02611656565b5b8751805188602083010194508089880111156115305788870182525b60208801935050505b60208510151561155e5781518352602083019250602082019150602085039450611539565b6001856020036101000a03905080198251168184511681811785525050879350505050949350505050565b6115916116e8565b8360200151831015156115b0576115af846002866020015102611656565b5b83518051602085830101848153818614156115cc576001820183525b5050508390509392505050565b6115e16116e8565b6000856020015185840111156116015761160086600287860102611656565b5b6001836101000a039050855183868201018583198251161781528151858801111561162c5784870182525b505085915050949350505050565b60008183111561164c57829050611650565b8190505b92915050565b60608260000151905061166983836112b0565b506116748382611468565b50505050565b60c06040519081016040528060008019168152602001600073ffffffffffffffffffffffffffffffffffffffff16815260200160007bffffffffffffffffffffffffffffffffffffffffffffffffffffffff19168152602001600081526020016116e2611702565b81525090565b604080519081016040528060608152602001600081525090565b6040805190810160405280606081526020016000815250905600a165627a7a72305820170a36c7429a617d66de254c5e40b3e6a14f35c7c15ca76e8a9b5477bd8703420029",
  "source": "pragma solidity 0.4.24;\n\nimport \"../node_modules/chainlink/contracts/ChainlinkClient.sol\";\nimport \"../node_modules/openzeppelin-solidity/contracts/ownership/Ownable.sol\";\n\nimport \"./storage/DrStorage.sol\";\nimport \"./storage/DrConstants.sol\";\n\n\ncontract DisasterRiskInsurance is ChainlinkClient, Ownable, DrStorage, DrConstants {\n    mapping(address => uint256) private fundTrue;\n    mapping(address => uint256) private fundFalse;\n    uint256 public totalFundTrue;\n    uint256 public totalFundFalse;\n\n    uint256 private oraclePaymentAmount;\n    bytes32 private jobId;\n\n    bool public resultReceived;\n    bool public result;\n\n    constructor(\n        address _link,\n        address _oracle,\n        bytes32 _jobId,\n        uint256 _oraclePaymentAmount\n        )\n    Ownable()\n    public\n    {\n        setChainlinkToken(_link);\n        setChainlinkOracle(_oracle);\n        jobId = _jobId;\n        oraclePaymentAmount = _oraclePaymentAmount;\n    }\n\n    function fundInsurance(bool fundOutcome) external payable\n    {\n        //require(!resultReceived, \"You cannot fund after the result has been received.\");\n        if (fundOutcome) {\n            fundTrue[msg.sender] += msg.value;\n            totalFundTrue += msg.value;\n        }\n\n    }\n\n    function withdrawFromFundPool() external\n    {\n        //require(resultReceived, \"You cannot withdraw before the result has been received.\");\n        if (result) \n        {\n            msg.sender.transfer(((totalFundTrue) * fundTrue[msg.sender]) / totalFundTrue);\n            fundTrue[msg.sender] = 0;\n        }\n        else\n        {\n            msg.sender.transfer(((totalFundTrue + totalFundFalse) * fundFalse[msg.sender]) / totalFundFalse);\n            fundFalse[msg.sender] = 0;\n        }\n    }\n\n    // You probably do not want onlyOwner here\n    // But then, you need some mechanism to prevent people from spamming this\n    function requestResultOfDisasterRisk() external returns (bytes32 requestId)    // Without onlyOwner\n    //function requestResult() external onlyOwner returns (bytes32 requestId)\n    {\n        //require(!resultReceived, \"The result has already been received.\");\n        Chainlink.Request memory req = buildChainlinkRequest(jobId, this, this.fulfill.selector);\n        // Using Ipstack - IP geolocation API\n        req.add(\"ip\", \"194.199.104.14\");\n        req.add(\"copyPath\", \"location.capital\");\n        //req.add(\"copyPath\", \"connection.isp\");\n        requestId = sendChainlinkRequestTo(chainlinkOracleAddress(), req, oraclePaymentAmount);\n    }\n\n    function getFundAmount(bool outcome) external view returns (uint256 fundAmount) \n    {\n        if (outcome) {\n            fundAmount = fundTrue[msg.sender];\n        }\n        \n    }\n\n    function fulfill(bytes32 _requestId, int256 data)\n    public\n    recordChainlinkFulfillment(_requestId)\n    {\n        resultReceived = true;\n        if (data > 0)\n        {\n            result = true;\n        }\n        else\n        {\n            result = false;\n        }\n    }\n}\n",
  "sourcePath": "/Users/unomasanori/projects/DEMO_MVP/Honeycomb_Hackathon/disaster-risk-insurance/contracts/DisasterRiskInsurance.sol",
  "compiler": {
    "name": "solc",
    "version": "0.4.24+commit.e67f0147.Emscripten.clang"
  },
  "schemaVersion": "3.0.19",
  "updatedAt": "2019-11-25T10:29:28.690Z",
  "networkType": "ethereum",
  "devdoc": {
    "methods": {
      "renounceOwnership()": {
        "details": "Allows the current owner to relinquish control of the contract."
      },
      "transferOwnership(address)": {
        "details": "Allows the current owner to transfer control of the contract to a newOwner.",
        "params": {
          "_newOwner": "The address to transfer ownership to."
        }
      }
    }
  },
  "userdoc": {
    "methods": {
      "renounceOwnership()": {
        "notice": "Renouncing to ownership will leave the contract without an owner. It will not be possible to call the functions with the `onlyOwner` modifier anymore."
      }
    }
  }
}