{
  "contractName": "DisasterRiskInsurance",
  "abi": [
    {
      "constant": true,
      "inputs": [],
      "name": "totalFundTrue",
      "outputs": [
        {
          "name": "",
          "type": "uint256"
        }
      ],
      "payable": false,
      "stateMutability": "view",
      "type": "function"
    },
    {
      "constant": true,
      "inputs": [],
      "name": "resultReceived",
      "outputs": [
        {
          "name": "",
          "type": "bool"
        }
      ],
      "payable": false,
      "stateMutability": "view",
      "type": "function"
    },
    {
      "constant": true,
      "inputs": [],
      "name": "result",
      "outputs": [
        {
          "name": "",
          "type": "bool"
        }
      ],
      "payable": false,
      "stateMutability": "view",
      "type": "function"
    },
    {
      "constant": false,
      "inputs": [],
      "name": "renounceOwnership",
      "outputs": [],
      "payable": false,
      "stateMutability": "nonpayable",
      "type": "function"
    },
    {
      "constant": true,
      "inputs": [],
      "name": "owner",
      "outputs": [
        {
          "name": "",
          "type": "address"
        }
      ],
      "payable": false,
      "stateMutability": "view",
      "type": "function"
    },
    {
      "constant": true,
      "inputs": [],
      "name": "totalFundFalse",
      "outputs": [
        {
          "name": "",
          "type": "uint256"
        }
      ],
      "payable": false,
      "stateMutability": "view",
      "type": "function"
    },
    {
      "constant": true,
      "inputs": [
        {
          "name": "",
          "type": "uint256"
        }
      ],
      "name": "beneficiaries",
      "outputs": [
        {
          "name": "walletAddr",
          "type": "address"
        },
        {
          "name": "fundAmount",
          "type": "uint256"
        },
        {
          "name": "ipAddress",
          "type": "string"
        },
        {
          "name": "isDisaster",
          "type": "bool"
        }
      ],
      "payable": false,
      "stateMutability": "view",
      "type": "function"
    },
    {
      "constant": false,
      "inputs": [
        {
          "name": "_newOwner",
          "type": "address"
        }
      ],
      "name": "transferOwnership",
      "outputs": [],
      "payable": false,
      "stateMutability": "nonpayable",
      "type": "function"
    },
    {
      "inputs": [
        {
          "name": "_link",
          "type": "address"
        },
        {
          "name": "_oracle",
          "type": "address"
        },
        {
          "name": "_jobId",
          "type": "bytes32"
        },
        {
          "name": "_oraclePaymentAmount",
          "type": "uint256"
        }
      ],
      "payable": false,
      "stateMutability": "nonpayable",
      "type": "constructor"
    },
    {
      "anonymous": false,
      "inputs": [
        {
          "indexed": true,
          "name": "previousOwner",
          "type": "address"
        }
      ],
      "name": "OwnershipRenounced",
      "type": "event"
    },
    {
      "anonymous": false,
      "inputs": [
        {
          "indexed": true,
          "name": "previousOwner",
          "type": "address"
        },
        {
          "indexed": true,
          "name": "newOwner",
          "type": "address"
        }
      ],
      "name": "OwnershipTransferred",
      "type": "event"
    },
    {
      "anonymous": false,
      "inputs": [
        {
          "indexed": false,
          "name": "requestId",
          "type": "bytes32"
        }
      ],
      "name": "RequestResultOfDisasterRisk",
      "type": "event"
    },
    {
      "anonymous": false,
      "inputs": [
        {
          "indexed": false,
          "name": "requestId",
          "type": "bytes32"
        },
        {
          "indexed": false,
          "name": "exampleName",
          "type": "string"
        },
        {
          "indexed": false,
          "name": "exampleAddr",
          "type": "address"
        }
      ],
      "name": "ExampleEvent",
      "type": "event"
    },
    {
      "anonymous": false,
      "inputs": [
        {
          "indexed": true,
          "name": "id",
          "type": "bytes32"
        }
      ],
      "name": "ChainlinkRequested",
      "type": "event"
    },
    {
      "anonymous": false,
      "inputs": [
        {
          "indexed": true,
          "name": "id",
          "type": "bytes32"
        }
      ],
      "name": "ChainlinkFulfilled",
      "type": "event"
    },
    {
      "anonymous": false,
      "inputs": [
        {
          "indexed": true,
          "name": "id",
          "type": "bytes32"
        }
      ],
      "name": "ChainlinkCancelled",
      "type": "event"
    },
    {
      "constant": false,
      "inputs": [
        {
          "name": "fundOutcome",
          "type": "bool"
        }
      ],
      "name": "fundInsurance",
      "outputs": [],
      "payable": true,
      "stateMutability": "payable",
      "type": "function"
    },
    {
      "constant": false,
      "inputs": [],
      "name": "withdrawFromFundPool",
      "outputs": [],
      "payable": false,
      "stateMutability": "nonpayable",
      "type": "function"
    },
    {
      "constant": false,
      "inputs": [],
      "name": "requestResultOfDisasterRisk",
      "outputs": [
        {
          "name": "requestId",
          "type": "bytes32"
        }
      ],
      "payable": false,
      "stateMutability": "nonpayable",
      "type": "function"
    },
    {
      "constant": true,
      "inputs": [
        {
          "name": "outcome",
          "type": "bool"
        }
      ],
      "name": "getFundAmount",
      "outputs": [
        {
          "name": "fundAmount",
          "type": "uint256"
        }
      ],
      "payable": false,
      "stateMutability": "view",
      "type": "function"
    },
    {
      "constant": false,
      "inputs": [
        {
          "name": "_requestId",
          "type": "bytes32"
        },
        {
          "name": "data",
          "type": "int256"
        }
      ],
      "name": "fulfill",
      "outputs": [],
      "payable": false,
      "stateMutability": "nonpayable",
      "type": "function"
    }
  ],
  "bytecode": "0x6080604052600160045534801561001557600080fd5b50604051608080611b618339810180604052810190808051906020019092919080519060200190929190805190602001909291908051906020019092919050505033600660006101000a81548173ffffffffffffffffffffffffffffffffffffffff021916908373ffffffffffffffffffffffffffffffffffffffff1602179055506100af846100e2640100000000026401000000009004565b6100c783610126640100000000026401000000009004565b81600e816000191690555080600d819055505050505061016a565b80600260006101000a81548173ffffffffffffffffffffffffffffffffffffffff021916908373ffffffffffffffffffffffffffffffffffffffff16021790555050565b80600360006101000a81548173ffffffffffffffffffffffffffffffffffffffff021916908373ffffffffffffffffffffffffffffffffffffffff16021790555050565b6119e8806101796000396000f3006080604052600436106100c5576000357c0100000000000000000000000000000000000000000000000000000000900463ffffffff168063038dad22146100ca5780630dece460146100e157806347549f4c146101245780634cd38cc21461014f578063653721471461017e5780636fa06921146101ad578063715018a6146101cf5780638da5cb5b146101e65780639a8ec2fb1461023d578063bda71d0414610268578063c3eddc43146102a3578063efeb5e58146102d6578063f2fde38b146103c1575b600080fd5b3480156100d657600080fd5b506100df610404565b005b3480156100ed57600080fd5b5061010e600480360381019080803515159060200190929190505050610683565b6040518082815260200191505060405180910390f35b34801561013057600080fd5b506101396106d3565b6040518082815260200191505060405180910390f35b34801561015b57600080fd5b506101646106d9565b604051808215151515815260200191505060405180910390f35b34801561018a57600080fd5b506101936106ec565b604051808215151515815260200191505060405180910390f35b6101cd6004803603810190808035151590602001909291905050506106ff565b005b3480156101db57600080fd5b506101e4610766565b005b3480156101f257600080fd5b506101fb61086b565b604051808273ffffffffffffffffffffffffffffffffffffffff1673ffffffffffffffffffffffffffffffffffffffff16815260200191505060405180910390f35b34801561024957600080fd5b50610252610891565b6040518082815260200191505060405180910390f35b34801561027457600080fd5b506102a1600480360381019080803560001916906020019092919080359060200190929190505050610897565b005b3480156102af57600080fd5b506102b8610a70565b60405180826000191660001916815260200191505060405180910390f35b3480156102e257600080fd5b5061030160048036038101908080359060200190929190505050610bc4565b604051808573ffffffffffffffffffffffffffffffffffffffff1673ffffffffffffffffffffffffffffffffffffffff1681526020018481526020018060200183151515158152602001828103825284818151815260200191508051906020019080838360005b83811015610383578082015181840152602081019050610368565b50505050905090810190601f1680156103b05780820380516001836020036101000a031916815260200191505b509550505050505060405180910390f35b3480156103cd57600080fd5b50610402600480360381019080803573ffffffffffffffffffffffffffffffffffffffff169060200190929190505050610cc8565b005b600f60009054906101000a900460ff1615156104ae576040517f08c379a00000000000000000000000000000000000000000000000000000000081526004018080602001828103825260388152602001807f596f752063616e6e6f74207769746864726177206265666f726520746865207281526020017f6573756c7420686173206265656e2072656365697665642e000000000000000081525060400191505060405180910390fd5b600f60019054906101000a900460ff16156105a4573373ffffffffffffffffffffffffffffffffffffffff166108fc600b54600960003373ffffffffffffffffffffffffffffffffffffffff1673ffffffffffffffffffffffffffffffffffffffff16815260200190815260200160002054600b540281151561052d57fe5b049081150290604051600060405180830381858888f19350505050158015610559573d6000803e3d6000fd5b506000600960003373ffffffffffffffffffffffffffffffffffffffff1673ffffffffffffffffffffffffffffffffffffffff16815260200190815260200160002081905550610681565b3373ffffffffffffffffffffffffffffffffffffffff166108fc600b54600960003373ffffffffffffffffffffffffffffffffffffffff1673ffffffffffffffffffffffffffffffffffffffff16815260200190815260200160002054600b540281151561060e57fe5b049081150290604051600060405180830381858888f1935050505015801561063a573d6000803e3d6000fd5b506000600960003373ffffffffffffffffffffffffffffffffffffffff1673ffffffffffffffffffffffffffffffffffffffff168152602001908152602001600020819055505b565b600081156106ce57600960003373ffffffffffffffffffffffffffffffffffffffff1673ffffffffffffffffffffffffffffffffffffffff1681526020019081526020016000205490505b919050565b600b5481565b600f60009054906101000a900460ff1681565b600f60019054906101000a900460ff1681565b80156107635734600960003373ffffffffffffffffffffffffffffffffffffffff1673ffffffffffffffffffffffffffffffffffffffff1681526020019081526020016000206000828254019250508190555034600b600082825401925050819055505b50565b600660009054906101000a900473ffffffffffffffffffffffffffffffffffffffff1673ffffffffffffffffffffffffffffffffffffffff163373ffffffffffffffffffffffffffffffffffffffff161415156107c257600080fd5b600660009054906101000a900473ffffffffffffffffffffffffffffffffffffffff1673ffffffffffffffffffffffffffffffffffffffff167ff8df31144d9c2f0f6b59d69b8b98abd5459d07f2742c4df920b25aae33c6482060405160405180910390a26000600660006101000a81548173ffffffffffffffffffffffffffffffffffffffff021916908373ffffffffffffffffffffffffffffffffffffffff160217905550565b600660009054906101000a900473ffffffffffffffffffffffffffffffffffffffff1681565b600c5481565b8160056000826000191660001916815260200190815260200160002060009054906101000a900473ffffffffffffffffffffffffffffffffffffffff1673ffffffffffffffffffffffffffffffffffffffff163373ffffffffffffffffffffffffffffffffffffffff1614151561099c576040517f08c379a00000000000000000000000000000000000000000000000000000000081526004018080602001828103825260288152602001807f536f75726365206d75737420626520746865206f7261636c65206f662074686581526020017f207265717565737400000000000000000000000000000000000000000000000081525060400191505060405180910390fd5b60056000826000191660001916815260200190815260200160002060006101000a81549073ffffffffffffffffffffffffffffffffffffffff021916905580600019167f7cc135e0cebb02c3480ae5d74d377283180a2601f8f644edf7987b009316c63a60405160405180910390a26001600f60006101000a81548160ff0219169083151502179055506000821315610a4f576001600f60016101000a81548160ff021916908315150217905550610a6b565b6000600f60016101000a81548160ff0219169083151502179055505b505050565b6000610a7a61191a565b610aaa600e543063bda71d047c010000000000000000000000000000000000000000000000000000000002610d30565b9050610b2b6040805190810160405280600281526020017f69700000000000000000000000000000000000000000000000000000000000008152506040805190810160405280600e81526020017f3139342e3139392e3130342e313400000000000000000000000000000000000081525083610d619092919063ffffffff16565b610baa6040805190810160405280600881526020017f636f7079506174680000000000000000000000000000000000000000000000008152506040805190810160405280601081526020017f6c6f636174696f6e2e6361706974616c0000000000000000000000000000000081525083610d619092919063ffffffff16565b610bbe610bb5610d94565b82600d54610dbe565b91505090565b600781815481101515610bd357fe5b90600052602060002090600402016000915090508060000160009054906101000a900473ffffffffffffffffffffffffffffffffffffffff1690806001015490806002018054600181600116156101000203166002900480601f016020809104026020016040519081016040528092919081815260200182805460018160011615610100020316600290048015610cab5780601f10610c8057610100808354040283529160200191610cab565b820191906000526020600020905b815481529060010190602001808311610c8e57829003601f168201915b5050505050908060030160009054906101000a900460ff16905084565b600660009054906101000a900473ffffffffffffffffffffffffffffffffffffffff1673ffffffffffffffffffffffffffffffffffffffff163373ffffffffffffffffffffffffffffffffffffffff16141515610d2457600080fd5b610d2d8161114a565b50565b610d3861191a565b610d4061191a565b610d5785858584611246909392919063ffffffff16565b9150509392505050565b610d7882846080015161130090919063ffffffff16565b610d8f81846080015161130090919063ffffffff16565b505050565b6000600360009054906101000a900473ffffffffffffffffffffffffffffffffffffffff16905090565b600030600454604051602001808373ffffffffffffffffffffffffffffffffffffffff1673ffffffffffffffffffffffffffffffffffffffff166c01000000000000000000000000028152601401828152602001925050506040516020818303038152906040526040518082805190602001908083835b602083101515610e5a5780518252602082019150602081019050602083039250610e35565b6001836020036101000a038019825116818451168082178552505050505050905001915050604051809103902090506004548360600181815250508360056000836000191660001916815260200190815260200160002060006101000a81548173ffffffffffffffffffffffffffffffffffffffff021916908373ffffffffffffffffffffffffffffffffffffffff16021790555080600019167fb5e6e01e79f91267dc17b4e6314d5d4d03593d2ceee0fbb452b750bd70ea5af960405160405180910390a2600260009054906101000a900473ffffffffffffffffffffffffffffffffffffffff1673ffffffffffffffffffffffffffffffffffffffff16634000aea08584610f6987611325565b6040518463ffffffff167c0100000000000000000000000000000000000000000000000000000000028152600401808473ffffffffffffffffffffffffffffffffffffffff1673ffffffffffffffffffffffffffffffffffffffff16815260200183815260200180602001828103825283818151815260200191508051906020019080838360005b8381101561100c578082015181840152602081019050610ff1565b50505050905090810190601f1680156110395780820380516001836020036101000a031916815260200191505b50945050505050602060405180830381600087803b15801561105a57600080fd5b505af115801561106e573d6000803e3d6000fd5b505050506040513d602081101561108457600080fd5b8101908080519060200190929190505050151561112f576040517f08c379a00000000000000000000000000000000000000000000000000000000081526004018080602001828103825260238152602001807f756e61626c6520746f207472616e73666572416e6443616c6c20746f206f726181526020017f636c65000000000000000000000000000000000000000000000000000000000081525060400191505060405180910390fd5b60016004600082825401925050819055508090509392505050565b600073ffffffffffffffffffffffffffffffffffffffff168173ffffffffffffffffffffffffffffffffffffffff161415151561118657600080fd5b8073ffffffffffffffffffffffffffffffffffffffff16600660009054906101000a900473ffffffffffffffffffffffffffffffffffffffff1673ffffffffffffffffffffffffffffffffffffffff167f8be0079c531659141344cd1fd0a4f28419497f9722a3daafe3b4186f6b6457e060405160405180910390a380600660006101000a81548173ffffffffffffffffffffffffffffffffffffffff021916908373ffffffffffffffffffffffffffffffffffffffff16021790555050565b61124e61191a565b61125e8560800151610100611550565b50838560000190600019169081600019168152505082856020019073ffffffffffffffffffffffffffffffffffffffff16908173ffffffffffffffffffffffffffffffffffffffff16815250508185604001907bffffffffffffffffffffffffffffffffffffffffffffffffffffffff191690817bffffffffffffffffffffffffffffffffffffffffffffffffffffffff191681525050849050949350505050565b61130d82600383516115aa565b611320818361170890919063ffffffff16565b505050565b6060600360009054906101000a900473ffffffffffffffffffffffffffffffffffffffff1673ffffffffffffffffffffffffffffffffffffffff16634042994690507c01000000000000000000000000000000000000000000000000000000000260008084600001518560200151866040015187606001516001896080015160000151604051602401808973ffffffffffffffffffffffffffffffffffffffff1673ffffffffffffffffffffffffffffffffffffffff16815260200188815260200187600019166000191681526020018673ffffffffffffffffffffffffffffffffffffffff1673ffffffffffffffffffffffffffffffffffffffff168152602001857bffffffffffffffffffffffffffffffffffffffffffffffffffffffff19167bffffffffffffffffffffffffffffffffffffffffffffffffffffffff1916815260200184815260200183815260200180602001828103825283818151815260200191508051906020019080838360005b838110156114b3578082015181840152602081019050611498565b50505050905090810190601f1680156114e05780820380516001836020036101000a031916815260200191505b509950505050505050505050604051602081830303815290604052907bffffffffffffffffffffffffffffffffffffffffffffffffffffffff19166020820180517bffffffffffffffffffffffffffffffffffffffffffffffffffffffff83818316178352505050509050919050565b611558611988565b600060208381151561156657fe5b061415156115835760208281151561157a57fe5b06602003820191505b81836020018181525050604051808452600081528281016020016040525082905092915050565b6017811115156115dc576115d68160058460ff169060020a0260ff16178461172a90919063ffffffff16565b50611703565b60ff8111151561162357611606601860058460ff169060020a02178461172a90919063ffffffff16565b5061161d8160018561174a9092919063ffffffff16565b50611702565b61ffff8111151561166b5761164e601960058460ff169060020a02178461172a90919063ffffffff16565b506116658160028561174a9092919063ffffffff16565b50611701565b63ffffffff811115156116b557611698601a60058460ff169060020a02178461172a90919063ffffffff16565b506116af8160048561174a9092919063ffffffff16565b50611700565b67ffffffffffffffff811115156116ff576116e6601b60058460ff169060020a02178461172a90919063ffffffff16565b506116fd8160088561174a9092919063ffffffff16565b505b5b5b5b5b505050565b611710611988565b6117228384600001515184855161176c565b905092915050565b611732611988565b6117428384600001515184611829565b905092915050565b611752611988565b611763848560000151518585611879565b90509392505050565b611774611988565b60008060008551851115151561178957600080fd5b876020015185880111156117b4576117b38860026117ad8b602001518b8a016118da565b026118f6565b5b8751805188602083010194508089880111156117d05788870182525b60208801935050505b6020851015156117fe57815183526020830192506020820191506020850394506117d9565b6001856020036101000a03905080198251168184511681811785525050879350505050949350505050565b611831611988565b8360200151831015156118505761184f8460028660200151026118f6565b5b835180516020858301018481538186141561186c576001820183525b5050508390509392505050565b611881611988565b6000856020015185840111156118a1576118a0866002878601026118f6565b5b6001836101000a03905085518386820101858319825116178152815185880111156118cc5784870182525b505085915050949350505050565b6000818311156118ec578290506118f0565b8190505b92915050565b6060826000015190506119098383611550565b506119148382611708565b50505050565b60c06040519081016040528060008019168152602001600073ffffffffffffffffffffffffffffffffffffffff16815260200160007bffffffffffffffffffffffffffffffffffffffffffffffffffffffff19168152602001600081526020016119826119a2565b81525090565b604080519081016040528060608152602001600081525090565b6040805190810160405280606081526020016000815250905600a165627a7a7230582043e34d7293d1615a33b4eb8a5d7cec09ec4721c922ad763055f464be2518ee9f0029",
  "source": "pragma solidity 0.4.24;\n\nimport \"../node_modules/chainlink/contracts/ChainlinkClient.sol\";\nimport \"../node_modules/openzeppelin-solidity/contracts/ownership/Ownable.sol\";\n\nimport \"./storage/DrStorage.sol\";\nimport \"./storage/DrConstants.sol\";\n\n\ncontract DisasterRiskInsurance is ChainlinkClient, Ownable, DrStorage, DrConstants {\n    mapping(address => uint256) private fundTrue;\n    mapping(address => uint256) private fundFalse;\n    uint256 public totalFundTrue;\n    uint256 public totalFundFalse;\n\n    uint256 private oraclePaymentAmount;\n    bytes32 private jobId;\n\n    bool public resultReceived;  // default value is \"false\"\n    bool public result;          // default value is \"false\"\n\n    constructor(\n        address _link,\n        address _oracle,\n        bytes32 _jobId,\n        uint256 _oraclePaymentAmount\n        )\n    Ownable()\n    public\n    {\n        setChainlinkToken(_link);\n        setChainlinkOracle(_oracle);\n        jobId = _jobId;\n        oraclePaymentAmount = _oraclePaymentAmount;\n    }\n\n    function fundInsurance(bool fundOutcome) external payable\n    {\n        //require(!resultReceived, \"You cannot fund after the result has been received.\");\n        if (fundOutcome) {\n            fundTrue[msg.sender] += msg.value;\n            totalFundTrue += msg.value;\n        }\n\n    }\n\n    function withdrawFromFundPool() external {\n        require(resultReceived, \"You cannot withdraw before the result has been received.\");\n        if (result) \n        {\n            msg.sender.transfer(((totalFundTrue) * fundTrue[msg.sender]) / totalFundTrue);\n            fundTrue[msg.sender] = 0;\n        }\n        else\n        {\n            msg.sender.transfer(((totalFundTrue) * fundTrue[msg.sender]) / totalFundTrue);\n            fundTrue[msg.sender] = 0;\n            //msg.sender.transfer(((totalFundTrue + totalFundFalse) * fundFalse[msg.sender]) / totalFundFalse);\n            //fundFalse[msg.sender] = 0;\n        }\n    }\n\n    // You probably do not want onlyOwner here\n    // But then, you need some mechanism to prevent people from spamming this\n    function requestResultOfDisasterRisk() external returns (bytes32 requestId)    // Without onlyOwner\n    //function requestResult() external onlyOwner returns (bytes32 requestId)\n    {\n        //require(!resultReceived, \"The result has already been received.\");\n        Chainlink.Request memory req = buildChainlinkRequest(jobId, this, this.fulfill.selector);\n        // Using Ipstack - IP geolocation API\n        req.add(\"ip\", \"194.199.104.14\");\n        req.add(\"copyPath\", \"location.capital\");\n        //req.add(\"copyPath\", \"connection.isp\");\n        requestId = sendChainlinkRequestTo(chainlinkOracleAddress(), req, oraclePaymentAmount);\n    }\n\n    function getFundAmount(bool outcome) external view returns (uint256 fundAmount) \n    {\n        if (outcome) {\n            fundAmount = fundTrue[msg.sender];\n        }\n        \n    }\n\n    function fulfill(bytes32 _requestId, int256 data)\n    public\n    recordChainlinkFulfillment(_requestId)\n    {\n        resultReceived = true;\n        if (data > 0)\n        {\n            result = true;\n        }\n        else\n        {\n            result = false;\n        }\n    }\n}\n",
  "sourcePath": "/Users/unomasanori/projects/DEMO_MVP/Honeycomb_Hackathon/disaster-risk-insurance/contracts/DisasterRiskInsurance.sol",
  "compiler": {
    "name": "solc",
    "version": "0.4.24+commit.e67f0147.Emscripten.clang"
  },
  "schemaVersion": "3.0.19",
  "updatedAt": "2019-11-25T15:16:51.878Z",
  "networkType": "ethereum",
  "devdoc": {
    "methods": {
      "renounceOwnership()": {
        "details": "Allows the current owner to relinquish control of the contract."
      },
      "transferOwnership(address)": {
        "details": "Allows the current owner to transfer control of the contract to a newOwner.",
        "params": {
          "_newOwner": "The address to transfer ownership to."
        }
      }
    }
  },
  "userdoc": {
    "methods": {
      "renounceOwnership()": {
        "notice": "Renouncing to ownership will leave the contract without an owner. It will not be possible to call the functions with the `onlyOwner` modifier anymore."
      }
    }
  }
}