{
  "contractName": "DisasterRiskInsurance",
  "abi": [
    {
      "constant": true,
      "inputs": [],
      "name": "totalFundPool",
      "outputs": [
        {
          "name": "",
          "type": "uint256"
        }
      ],
      "payable": false,
      "stateMutability": "view",
      "type": "function"
    },
    {
      "constant": true,
      "inputs": [],
      "name": "resultCapital",
      "outputs": [
        {
          "name": "",
          "type": "bytes32"
        }
      ],
      "payable": false,
      "stateMutability": "view",
      "type": "function"
    },
    {
      "constant": true,
      "inputs": [],
      "name": "resultLatitude",
      "outputs": [
        {
          "name": "",
          "type": "int256"
        }
      ],
      "payable": false,
      "stateMutability": "view",
      "type": "function"
    },
    {
      "constant": false,
      "inputs": [],
      "name": "renounceOwnership",
      "outputs": [],
      "payable": false,
      "stateMutability": "nonpayable",
      "type": "function"
    },
    {
      "constant": true,
      "inputs": [],
      "name": "resultLongitude",
      "outputs": [
        {
          "name": "",
          "type": "int256"
        }
      ],
      "payable": false,
      "stateMutability": "view",
      "type": "function"
    },
    {
      "constant": true,
      "inputs": [],
      "name": "owner",
      "outputs": [
        {
          "name": "",
          "type": "address"
        }
      ],
      "payable": false,
      "stateMutability": "view",
      "type": "function"
    },
    {
      "constant": true,
      "inputs": [],
      "name": "resultCapitalReceived",
      "outputs": [
        {
          "name": "",
          "type": "bool"
        }
      ],
      "payable": false,
      "stateMutability": "view",
      "type": "function"
    },
    {
      "constant": true,
      "inputs": [],
      "name": "resultLatitudeReceived",
      "outputs": [
        {
          "name": "",
          "type": "bool"
        }
      ],
      "payable": false,
      "stateMutability": "view",
      "type": "function"
    },
    {
      "constant": true,
      "inputs": [],
      "name": "resultLongitudeReceived",
      "outputs": [
        {
          "name": "",
          "type": "bool"
        }
      ],
      "payable": false,
      "stateMutability": "view",
      "type": "function"
    },
    {
      "constant": true,
      "inputs": [
        {
          "name": "",
          "type": "uint256"
        }
      ],
      "name": "beneficiaries",
      "outputs": [
        {
          "name": "walletAddr",
          "type": "address"
        },
        {
          "name": "totalFundAmount",
          "type": "uint256"
        },
        {
          "name": "ipAddress",
          "type": "string"
        },
        {
          "name": "isDisaster",
          "type": "bool"
        }
      ],
      "payable": false,
      "stateMutability": "view",
      "type": "function"
    },
    {
      "constant": false,
      "inputs": [
        {
          "name": "_newOwner",
          "type": "address"
        }
      ],
      "name": "transferOwnership",
      "outputs": [],
      "payable": false,
      "stateMutability": "nonpayable",
      "type": "function"
    },
    {
      "inputs": [
        {
          "name": "_link",
          "type": "address"
        },
        {
          "name": "_oracle",
          "type": "address"
        },
        {
          "name": "_jobId_1",
          "type": "bytes32"
        },
        {
          "name": "_jobId_2",
          "type": "bytes32"
        },
        {
          "name": "_jobId_3",
          "type": "bytes32"
        },
        {
          "name": "_oraclePaymentAmount",
          "type": "uint256"
        }
      ],
      "payable": false,
      "stateMutability": "nonpayable",
      "type": "constructor"
    },
    {
      "anonymous": false,
      "inputs": [
        {
          "indexed": true,
          "name": "previousOwner",
          "type": "address"
        }
      ],
      "name": "OwnershipRenounced",
      "type": "event"
    },
    {
      "anonymous": false,
      "inputs": [
        {
          "indexed": true,
          "name": "previousOwner",
          "type": "address"
        },
        {
          "indexed": true,
          "name": "newOwner",
          "type": "address"
        }
      ],
      "name": "OwnershipTransferred",
      "type": "event"
    },
    {
      "anonymous": false,
      "inputs": [
        {
          "indexed": false,
          "name": "requestId",
          "type": "bytes32"
        }
      ],
      "name": "RequestResultOfDisasterRisk",
      "type": "event"
    },
    {
      "anonymous": false,
      "inputs": [
        {
          "indexed": false,
          "name": "walletAddr",
          "type": "address"
        },
        {
          "indexed": false,
          "name": "initialAmount",
          "type": "uint256"
        },
        {
          "indexed": false,
          "name": "ipAddress",
          "type": "string"
        },
        {
          "indexed": false,
          "name": "isDisaster",
          "type": "bool"
        }
      ],
      "name": "CreateBeneficiary",
      "type": "event"
    },
    {
      "anonymous": false,
      "inputs": [
        {
          "indexed": false,
          "name": "requestId",
          "type": "bytes32"
        },
        {
          "indexed": false,
          "name": "exampleName",
          "type": "string"
        },
        {
          "indexed": false,
          "name": "exampleAddr",
          "type": "address"
        }
      ],
      "name": "ExampleEvent",
      "type": "event"
    },
    {
      "anonymous": false,
      "inputs": [
        {
          "indexed": true,
          "name": "id",
          "type": "bytes32"
        }
      ],
      "name": "ChainlinkRequested",
      "type": "event"
    },
    {
      "anonymous": false,
      "inputs": [
        {
          "indexed": true,
          "name": "id",
          "type": "bytes32"
        }
      ],
      "name": "ChainlinkFulfilled",
      "type": "event"
    },
    {
      "anonymous": false,
      "inputs": [
        {
          "indexed": true,
          "name": "id",
          "type": "bytes32"
        }
      ],
      "name": "ChainlinkCancelled",
      "type": "event"
    },
    {
      "constant": false,
      "inputs": [
        {
          "name": "fundOutcome",
          "type": "bool"
        }
      ],
      "name": "fundInsurance",
      "outputs": [],
      "payable": true,
      "stateMutability": "payable",
      "type": "function"
    },
    {
      "constant": false,
      "inputs": [],
      "name": "withdrawFromFundPool",
      "outputs": [],
      "payable": false,
      "stateMutability": "nonpayable",
      "type": "function"
    },
    {
      "constant": false,
      "inputs": [
        {
          "name": "ipAddress",
          "type": "string"
        }
      ],
      "name": "requestResultOfCapital",
      "outputs": [
        {
          "name": "requestId",
          "type": "bytes32"
        }
      ],
      "payable": false,
      "stateMutability": "nonpayable",
      "type": "function"
    },
    {
      "constant": false,
      "inputs": [
        {
          "name": "ipAddress",
          "type": "string"
        }
      ],
      "name": "requestResultOfLatitude",
      "outputs": [
        {
          "name": "requestId",
          "type": "bytes32"
        }
      ],
      "payable": false,
      "stateMutability": "nonpayable",
      "type": "function"
    },
    {
      "constant": false,
      "inputs": [
        {
          "name": "ipAddress",
          "type": "string"
        }
      ],
      "name": "requestResultOfLongitude",
      "outputs": [
        {
          "name": "requestId",
          "type": "bytes32"
        }
      ],
      "payable": false,
      "stateMutability": "nonpayable",
      "type": "function"
    },
    {
      "constant": true,
      "inputs": [
        {
          "name": "outcome",
          "type": "bool"
        }
      ],
      "name": "getFundAmount",
      "outputs": [
        {
          "name": "fundAmount",
          "type": "uint256"
        }
      ],
      "payable": false,
      "stateMutability": "view",
      "type": "function"
    },
    {
      "constant": false,
      "inputs": [
        {
          "name": "_requestId",
          "type": "bytes32"
        },
        {
          "name": "data",
          "type": "bytes32"
        }
      ],
      "name": "fulfill_capital",
      "outputs": [],
      "payable": false,
      "stateMutability": "nonpayable",
      "type": "function"
    },
    {
      "constant": false,
      "inputs": [
        {
          "name": "_requestId",
          "type": "bytes32"
        },
        {
          "name": "data",
          "type": "int256"
        }
      ],
      "name": "fulfill_latitude",
      "outputs": [],
      "payable": false,
      "stateMutability": "nonpayable",
      "type": "function"
    },
    {
      "constant": false,
      "inputs": [
        {
          "name": "_requestId",
          "type": "bytes32"
        },
        {
          "name": "data",
          "type": "int256"
        }
      ],
      "name": "fulfill_longitude",
      "outputs": [],
      "payable": false,
      "stateMutability": "nonpayable",
      "type": "function"
    }
  ],
  "bytecode": "0x60806040526001600455670de0b6b3a764000060095534801561002157600080fd5b5060405160c080620023df83398101806040528101908080519060200190929190805190602001909291908051906020019092919080519060200190929190805190602001909291908051906020019092919050505033600660006101000a81548173ffffffffffffffffffffffffffffffffffffffff021916908373ffffffffffffffffffffffffffffffffffffffff1602179055506100d086610123640100000000026401000000009004565b6100e885610167640100000000026401000000009004565b83600e816000191690555082600f8160001916905550816010816000191690555080600d819055506002600c819055505050505050506101ab565b80600260006101000a81548173ffffffffffffffffffffffffffffffffffffffff021916908373ffffffffffffffffffffffffffffffffffffffff16021790555050565b80600360006101000a81548173ffffffffffffffffffffffffffffffffffffffff021916908373ffffffffffffffffffffffffffffffffffffffff16021790555050565b61222480620001bb6000396000f300608060405260043610610112576000357c0100000000000000000000000000000000000000000000000000000000900463ffffffff168063038dad22146101175780630dece4601461012e57806314f421ac1461017157806344b36cd8146101c85780634f54d383146101f35780636963a524146102265780636a5b3f0a146102515780636fa069211461028c578063715018a6146102ae578063753b4785146102c5578063767321b81461031c5780637df35800146103575780638da5cb5b14610382578063bbad0bef146103d9578063ed4c9cc514610408578063edff27fc14610437578063efeb5e5814610466578063f1afc21114610551578063f2fde38b146105a8578063f8f1d8c4146105eb575b600080fd5b34801561012357600080fd5b5061012c61062a565b005b34801561013a57600080fd5b5061015b6004803603810190808035151590602001909291905050506107da565b6040518082815260200191505060405180910390f35b34801561017d57600080fd5b506101aa60048036038101908080359060200190820180359060200191909192939192939050505061082a565b60405180826000191660001916815260200191505060405180910390f35b3480156101d457600080fd5b506101dd6109ce565b6040518082815260200191505060405180910390f35b3480156101ff57600080fd5b506102086109d4565b60405180826000191660001916815260200191505060405180910390f35b34801561023257600080fd5b5061023b6109da565b6040518082815260200191505060405180910390f35b34801561025d57600080fd5b5061028a6004803603810190808035600019169060200190929190803590602001909291905050506109e0565b005b6102ac600480360381019080803515159060200190929190505050610b7b565b005b3480156102ba57600080fd5b506102c3610be2565b005b3480156102d157600080fd5b506102fe600480360381019080803590602001908201803590602001919091929391929390505050610ce7565b60405180826000191660001916815260200191505060405180910390f35b34801561032857600080fd5b50610355600480360381019080803560001916906020019092919080359060200190929190505050610e3b565b005b34801561036357600080fd5b5061036c610fd6565b6040518082815260200191505060405180910390f35b34801561038e57600080fd5b50610397610fdc565b604051808273ffffffffffffffffffffffffffffffffffffffff1673ffffffffffffffffffffffffffffffffffffffff16815260200191505060405180910390f35b3480156103e557600080fd5b506103ee611002565b604051808215151515815260200191505060405180910390f35b34801561041457600080fd5b5061041d611015565b604051808215151515815260200191505060405180910390f35b34801561044357600080fd5b5061044c611028565b604051808215151515815260200191505060405180910390f35b34801561047257600080fd5b506104916004803603810190808035906020019092919050505061103b565b604051808573ffffffffffffffffffffffffffffffffffffffff1673ffffffffffffffffffffffffffffffffffffffff1681526020018481526020018060200183151515158152602001828103825284818151815260200191508051906020019080838360005b838110156105135780820151818401526020810190506104f8565b50505050905090810190601f1680156105405780820380516001836020036101000a031916815260200191505b509550505050505060405180910390f35b34801561055d57600080fd5b5061058a60048036038101908080359060200190820180359060200191909192939192939050505061113f565b60405180826000191660001916815260200191505060405180910390f35b3480156105b457600080fd5b506105e9600480360381019080803573ffffffffffffffffffffffffffffffffffffffff1690602001909291905050506112e4565b005b3480156105f757600080fd5b506106286004803603810190808035600019169060200190929190803560001916906020019092919050505061134c565b005b600a60003373ffffffffffffffffffffffffffffffffffffffff1673ffffffffffffffffffffffffffffffffffffffff16815260200190815260200160002054600b5410151515610709576040517f08c379a000000000000000000000000000000000000000000000000000000000815260040180806020018281038252602c8152602001807f4e6f7420656e6f7567682066756e6420706f6f6c20746f2073656e6420696e7381526020017f7572616e6365206d6f6e6579000000000000000000000000000000000000000081525060400191505060405180910390fd5b3373ffffffffffffffffffffffffffffffffffffffff166108fc600c54600a60003373ffffffffffffffffffffffffffffffffffffffff1673ffffffffffffffffffffffffffffffffffffffff16815260200190815260200160002054029081150290604051600060405180830381858888f19350505050158015610792573d6000803e3d6000fd5b506000600a60003373ffffffffffffffffffffffffffffffffffffffff1673ffffffffffffffffffffffffffffffffffffffff16815260200190815260200160002081905550565b6000811561082557600a60003373ffffffffffffffffffffffffffffffffffffffff1673ffffffffffffffffffffffffffffffffffffffff1681526020019081526020016000205490505b919050565b6000610834612156565b610864600f543063767321b87c0100000000000000000000000000000000000000000000000000000000026114eb565b90506108e26040805190810160405280600281526020017f697000000000000000000000000000000000000000000000000000000000000081525085858080601f0160208091040260200160405190810160405280939291908181526020018383808284378201915050505050508361151c9092919063ffffffff16565b6109326040805190810160405280600581526020017f74696d65730000000000000000000000000000000000000000000000000000008152506509184e72a0008361154f9092919063ffffffff16565b6109b16040805190810160405280600881526020017f636f7079506174680000000000000000000000000000000000000000000000008152506040805190810160405280600881526020017f6c617469747564650000000000000000000000000000000000000000000000008152508361151c9092919063ffffffff16565b6109c56109bc611582565b82600d546115ac565b91505092915050565b600b5481565b60125481565b60135481565b8160056000826000191660001916815260200190815260200160002060009054906101000a900473ffffffffffffffffffffffffffffffffffffffff1673ffffffffffffffffffffffffffffffffffffffff163373ffffffffffffffffffffffffffffffffffffffff16141515610ae5576040517f08c379a00000000000000000000000000000000000000000000000000000000081526004018080602001828103825260288152602001807f536f75726365206d75737420626520746865206f7261636c65206f662074686581526020017f207265717565737400000000000000000000000000000000000000000000000081525060400191505060405180910390fd5b60056000826000191660001916815260200190815260200160002060006101000a81549073ffffffffffffffffffffffffffffffffffffffff021916905580600019167f7cc135e0cebb02c3480ae5d74d377283180a2601f8f644edf7987b009316c63a60405160405180910390a26001601160026101000a81548160ff02191690831515021790555081601481905550505050565b8015610bdf5734600a60003373ffffffffffffffffffffffffffffffffffffffff1673ffffffffffffffffffffffffffffffffffffffff1681526020019081526020016000206000828254019250508190555034600b600082825401925050819055505b50565b600660009054906101000a900473ffffffffffffffffffffffffffffffffffffffff1673ffffffffffffffffffffffffffffffffffffffff163373ffffffffffffffffffffffffffffffffffffffff16141515610c3e57600080fd5b600660009054906101000a900473ffffffffffffffffffffffffffffffffffffffff1673ffffffffffffffffffffffffffffffffffffffff167ff8df31144d9c2f0f6b59d69b8b98abd5459d07f2742c4df920b25aae33c6482060405160405180910390a26000600660006101000a81548173ffffffffffffffffffffffffffffffffffffffff021916908373ffffffffffffffffffffffffffffffffffffffff160217905550565b6000610cf1612156565b610d21600e543063f8f1d8c47c0100000000000000000000000000000000000000000000000000000000026114eb565b9050610d9f6040805190810160405280600281526020017f697000000000000000000000000000000000000000000000000000000000000081525085858080601f0160208091040260200160405190810160405280939291908181526020018383808284378201915050505050508361151c9092919063ffffffff16565b610e1e6040805190810160405280600881526020017f636f7079506174680000000000000000000000000000000000000000000000008152506040805190810160405280600481526020017f63697479000000000000000000000000000000000000000000000000000000008152508361151c9092919063ffffffff16565b610e32610e29611582565b82600d546115ac565b91505092915050565b8160056000826000191660001916815260200190815260200160002060009054906101000a900473ffffffffffffffffffffffffffffffffffffffff1673ffffffffffffffffffffffffffffffffffffffff163373ffffffffffffffffffffffffffffffffffffffff16141515610f40576040517f08c379a00000000000000000000000000000000000000000000000000000000081526004018080602001828103825260288152602001807f536f75726365206d75737420626520746865206f7261636c65206f662074686581526020017f207265717565737400000000000000000000000000000000000000000000000081525060400191505060405180910390fd5b60056000826000191660001916815260200190815260200160002060006101000a81549073ffffffffffffffffffffffffffffffffffffffff021916905580600019167f7cc135e0cebb02c3480ae5d74d377283180a2601f8f644edf7987b009316c63a60405160405180910390a26001601160016101000a81548160ff02191690831515021790555081601381905550505050565b60145481565b600660009054906101000a900473ffffffffffffffffffffffffffffffffffffffff1681565b601160009054906101000a900460ff1681565b601160019054906101000a900460ff1681565b601160029054906101000a900460ff1681565b60078181548110151561104a57fe5b90600052602060002090600402016000915090508060000160009054906101000a900473ffffffffffffffffffffffffffffffffffffffff1690806001015490806002018054600181600116156101000203166002900480601f0160208091040260200160405190810160405280929190818152602001828054600181600116156101000203166002900480156111225780601f106110f757610100808354040283529160200191611122565b820191906000526020600020905b81548152906001019060200180831161110557829003601f168201915b5050505050908060030160009054906101000a900460ff16905084565b6000611149612156565b611179600f5430636a5b3f0a7c0100000000000000000000000000000000000000000000000000000000026114eb565b90506111f76040805190810160405280600281526020017f697000000000000000000000000000000000000000000000000000000000000081525085858080601f0160208091040260200160405190810160405280939291908181526020018383808284378201915050505050508361151c9092919063ffffffff16565b6112486040805190810160405280600581526020017f74696d657300000000000000000000000000000000000000000000000000000081525066038d7ea4c680008361154f9092919063ffffffff16565b6112c76040805190810160405280600881526020017f636f7079506174680000000000000000000000000000000000000000000000008152506040805190810160405280600981526020017f6c6f6e67697475646500000000000000000000000000000000000000000000008152508361151c9092919063ffffffff16565b6112db6112d2611582565b82600d546115ac565b91505092915050565b600660009054906101000a900473ffffffffffffffffffffffffffffffffffffffff1673ffffffffffffffffffffffffffffffffffffffff163373ffffffffffffffffffffffffffffffffffffffff1614151561134057600080fd5b61134981611938565b50565b8160056000826000191660001916815260200190815260200160002060009054906101000a900473ffffffffffffffffffffffffffffffffffffffff1673ffffffffffffffffffffffffffffffffffffffff163373ffffffffffffffffffffffffffffffffffffffff16141515611451576040517f08c379a00000000000000000000000000000000000000000000000000000000081526004018080602001828103825260288152602001807f536f75726365206d75737420626520746865206f7261636c65206f662074686581526020017f207265717565737400000000000000000000000000000000000000000000000081525060400191505060405180910390fd5b60056000826000191660001916815260200190815260200160002060006101000a81549073ffffffffffffffffffffffffffffffffffffffff021916905580600019167f7cc135e0cebb02c3480ae5d74d377283180a2601f8f644edf7987b009316c63a60405160405180910390a26001601160006101000a81548160ff0219169083151502179055508160128160001916905550505050565b6114f3612156565b6114fb612156565b61151285858584611a34909392919063ffffffff16565b9150509392505050565b611533828460800151611aee90919063ffffffff16565b61154a818460800151611aee90919063ffffffff16565b505050565b611566828460800151611aee90919063ffffffff16565b61157d818460800151611b1390919063ffffffff16565b505050565b6000600360009054906101000a900473ffffffffffffffffffffffffffffffffffffffff16905090565b600030600454604051602001808373ffffffffffffffffffffffffffffffffffffffff1673ffffffffffffffffffffffffffffffffffffffff166c01000000000000000000000000028152601401828152602001925050506040516020818303038152906040526040518082805190602001908083835b6020831015156116485780518252602082019150602081019050602083039250611623565b6001836020036101000a038019825116818451168082178552505050505050905001915050604051809103902090506004548360600181815250508360056000836000191660001916815260200190815260200160002060006101000a81548173ffffffffffffffffffffffffffffffffffffffff021916908373ffffffffffffffffffffffffffffffffffffffff16021790555080600019167fb5e6e01e79f91267dc17b4e6314d5d4d03593d2ceee0fbb452b750bd70ea5af960405160405180910390a2600260009054906101000a900473ffffffffffffffffffffffffffffffffffffffff1673ffffffffffffffffffffffffffffffffffffffff16634000aea0858461175787611b61565b6040518463ffffffff167c0100000000000000000000000000000000000000000000000000000000028152600401808473ffffffffffffffffffffffffffffffffffffffff1673ffffffffffffffffffffffffffffffffffffffff16815260200183815260200180602001828103825283818151815260200191508051906020019080838360005b838110156117fa5780820151818401526020810190506117df565b50505050905090810190601f1680156118275780820380516001836020036101000a031916815260200191505b50945050505050602060405180830381600087803b15801561184857600080fd5b505af115801561185c573d6000803e3d6000fd5b505050506040513d602081101561187257600080fd5b8101908080519060200190929190505050151561191d576040517f08c379a00000000000000000000000000000000000000000000000000000000081526004018080602001828103825260238152602001807f756e61626c6520746f207472616e73666572416e6443616c6c20746f206f726181526020017f636c65000000000000000000000000000000000000000000000000000000000081525060400191505060405180910390fd5b60016004600082825401925050819055508090509392505050565b600073ffffffffffffffffffffffffffffffffffffffff168173ffffffffffffffffffffffffffffffffffffffff161415151561197457600080fd5b8073ffffffffffffffffffffffffffffffffffffffff16600660009054906101000a900473ffffffffffffffffffffffffffffffffffffffff1673ffffffffffffffffffffffffffffffffffffffff167f8be0079c531659141344cd1fd0a4f28419497f9722a3daafe3b4186f6b6457e060405160405180910390a380600660006101000a81548173ffffffffffffffffffffffffffffffffffffffff021916908373ffffffffffffffffffffffffffffffffffffffff16021790555050565b611a3c612156565b611a4c8560800151610100611d8c565b50838560000190600019169081600019168152505082856020019073ffffffffffffffffffffffffffffffffffffffff16908173ffffffffffffffffffffffffffffffffffffffff16815250508185604001907bffffffffffffffffffffffffffffffffffffffffffffffffffffffff191690817bffffffffffffffffffffffffffffffffffffffffffffffffffffffff191681525050849050949350505050565b611afb8260038351611de6565b611b0e8183611f4490919063ffffffff16565b505050565b600081121515611b2e57611b2982600083611de6565b611b5d565b611b5c826001837fffffffffffffffffffffffffffffffffffffffffffffffffffffffffffffffff03611de6565b5b5050565b6060600360009054906101000a900473ffffffffffffffffffffffffffffffffffffffff1673ffffffffffffffffffffffffffffffffffffffff16634042994690507c01000000000000000000000000000000000000000000000000000000000260008084600001518560200151866040015187606001516001896080015160000151604051602401808973ffffffffffffffffffffffffffffffffffffffff1673ffffffffffffffffffffffffffffffffffffffff16815260200188815260200187600019166000191681526020018673ffffffffffffffffffffffffffffffffffffffff1673ffffffffffffffffffffffffffffffffffffffff168152602001857bffffffffffffffffffffffffffffffffffffffffffffffffffffffff19167bffffffffffffffffffffffffffffffffffffffffffffffffffffffff1916815260200184815260200183815260200180602001828103825283818151815260200191508051906020019080838360005b83811015611cef578082015181840152602081019050611cd4565b50505050905090810190601f168015611d1c5780820380516001836020036101000a031916815260200191505b509950505050505050505050604051602081830303815290604052907bffffffffffffffffffffffffffffffffffffffffffffffffffffffff19166020820180517bffffffffffffffffffffffffffffffffffffffffffffffffffffffff83818316178352505050509050919050565b611d946121c4565b6000602083811515611da257fe5b06141515611dbf57602082811515611db657fe5b06602003820191505b81836020018181525050604051808452600081528281016020016040525082905092915050565b601781111515611e1857611e128160058460ff169060020a0260ff161784611f6690919063ffffffff16565b50611f3f565b60ff81111515611e5f57611e42601860058460ff169060020a021784611f6690919063ffffffff16565b50611e5981600185611f869092919063ffffffff16565b50611f3e565b61ffff81111515611ea757611e8a601960058460ff169060020a021784611f6690919063ffffffff16565b50611ea181600285611f869092919063ffffffff16565b50611f3d565b63ffffffff81111515611ef157611ed4601a60058460ff169060020a021784611f6690919063ffffffff16565b50611eeb81600485611f869092919063ffffffff16565b50611f3c565b67ffffffffffffffff81111515611f3b57611f22601b60058460ff169060020a021784611f6690919063ffffffff16565b50611f3981600885611f869092919063ffffffff16565b505b5b5b5b5b505050565b611f4c6121c4565b611f5e83846000015151848551611fa8565b905092915050565b611f6e6121c4565b611f7e8384600001515184612065565b905092915050565b611f8e6121c4565b611f9f8485600001515185856120b5565b90509392505050565b611fb06121c4565b600080600085518511151515611fc557600080fd5b87602001518588011115611ff057611fef886002611fe98b602001518b8a01612116565b02612132565b5b87518051886020830101945080898801111561200c5788870182525b60208801935050505b60208510151561203a5781518352602083019250602082019150602085039450612015565b6001856020036101000a03905080198251168184511681811785525050879350505050949350505050565b61206d6121c4565b83602001518310151561208c5761208b846002866020015102612132565b5b83518051602085830101848153818614156120a8576001820183525b5050508390509392505050565b6120bd6121c4565b6000856020015185840111156120dd576120dc86600287860102612132565b5b6001836101000a03905085518386820101858319825116178152815185880111156121085784870182525b505085915050949350505050565b6000818311156121285782905061212c565b8190505b92915050565b6060826000015190506121458383611d8c565b506121508382611f44565b50505050565b60c06040519081016040528060008019168152602001600073ffffffffffffffffffffffffffffffffffffffff16815260200160007bffffffffffffffffffffffffffffffffffffffffffffffffffffffff19168152602001600081526020016121be6121de565b81525090565b604080519081016040528060608152602001600081525090565b6040805190810160405280606081526020016000815250905600a165627a7a723058206f7ffcea538fb3d765746799639f281738a3ad34b384769ed0f8048ffc3988d70029",
  "source": "pragma solidity 0.4.24;\n\nimport \"../node_modules/chainlink/contracts/ChainlinkClient.sol\";\nimport \"../node_modules/openzeppelin-solidity/contracts/ownership/Ownable.sol\";\nimport \"../node_modules/openzeppelin-solidity/contracts/math/SafeMath.sol\";\n\nimport \"./storage/DrStorage.sol\";\nimport \"./storage/DrConstants.sol\";\n\n\ncontract DisasterRiskInsurance is ChainlinkClient, Ownable, DrStorage, DrConstants {\n    using SafeMath for uint256;\n    uint256 initialSupplyAmount = 1e18;\n\n    mapping(address => uint256) private totalFundIndividual;\n    uint256 public totalFundPool;\n    uint256 RECEIVABLE_RATE;\n\n    uint256 private oraclePaymentAmount;\n    bytes32 private jobId_1;  // This jobId's data-type is bytes32\n    bytes32 private jobId_2;  // This jobId's data-type is int256\n    bytes32 private jobId_3;  // This jobId's data-type is uint256\n\n    bool public resultCapitalReceived;     // default value is \"false\"\n    bool public resultLatitudeReceived;    // default value is \"false\"\n    bool public resultLongitudeReceived;   // default value is \"false\"\n    //bool public resultReceived;          // default value is \"false\"\n\n    bytes32 public resultCapital;       // This is result value of request\n    int256 public resultLatitude;       // This is result value of request\n    int256 public resultLongitude;     // This is result value of request\n\n    constructor(\n        address _link,\n        address _oracle,\n        bytes32 _jobId_1,  // This jobId's data-type is bytes32\n        bytes32 _jobId_2,  // This jobId's data-type is int256\n        bytes32 _jobId_3,  // This jobId's data-type is uint256\n        uint256 _oraclePaymentAmount\n    ) Ownable() public \n    {\n        setChainlinkToken(_link);\n        setChainlinkOracle(_oracle);\n        jobId_1 = _jobId_1;  // This jobId's data-type is bytes32\n        jobId_2 = _jobId_2;  // This jobId's data-type is int256\n        jobId_3 = _jobId_3;  // This jobId's data-type is uint256\n        oraclePaymentAmount = _oraclePaymentAmount;\n\n        //address(this).transfer(initialSupplyAmount);\n        //totalFundPool = initialSupplyAmount;\n        //totalFundPool = 1e19;  // @notice Assume that totalFundPool start from 10ETH\n        RECEIVABLE_RATE = 2;   // @notice Use for calculate receivale amount\n    }\n\n    function fundInsurance(bool fundOutcome) external payable\n    {\n        //require(!resultReceived, \"You cannot fund after the result has been received.\");\n        if (fundOutcome) {\n            totalFundIndividual[msg.sender] += msg.value;\n            totalFundPool += msg.value;\n        }\n\n    }\n\n    function withdrawFromFundPool() external {\n        //require(resultReceived, \"You cannot withdraw before the result has been received.\");\n        require (totalFundPool >= totalFundIndividual[msg.sender], \"Not enough fund pool to send insurance money\");\n        \n        /*** \n         * @notice Each beneficially can receive 2 times amount which total amount of funding\n         ***/\n        msg.sender.transfer((totalFundIndividual[msg.sender] * RECEIVABLE_RATE));                        // New Logic\n        //msg.sender.transfer(((totalFundPool) * totalFundIndividual[msg.sender]) / totalFundPool);    // Original Logic\n        totalFundIndividual[msg.sender] = 0;\n    }\n\n    // You probably do not want onlyOwner here\n    // But then, you need some mechanism to prevent people from spamming this\n    function requestResultOfCapital(string ipAddress) external returns (bytes32 requestId)    // Without onlyOwner\n    {\n        //require(!resultReceived, \"The result has already been received.\");\n\n        //Chainlink.Request memory req = buildChainlinkRequest(jobId_1, this, this.fulfill.selector);\n        Chainlink.Request memory req = buildChainlinkRequest(jobId_1, this, this.fulfill_capital.selector);\n        // Using Ipstack - IP geolocation API\n        req.add(\"ip\", ipAddress);\n        //req.add(\"ip\", \"194.199.104.14\");\n        req.add(\"copyPath\", \"city\");\n        //req.add(\"copyPath\", \"location.capital\");\n        //req.add(\"copyPath\", \"connection.isp\");\n\n        requestId = sendChainlinkRequestTo(chainlinkOracleAddress(), req, oraclePaymentAmount);\n    }\n\n    function requestResultOfLatitude(string ipAddress) external returns (bytes32 requestId)    // Without onlyOwner\n    {\n        Chainlink.Request memory req = buildChainlinkRequest(jobId_2, this, this.fulfill_latitude.selector);\n        // Using Ipstack - IP geolocation API\n        req.add(\"ip\", ipAddress);\n        req.addInt(\"times\", 10000000000000);  // To get number which include decimals\n        req.add(\"copyPath\", \"latitude\");\n        requestId = sendChainlinkRequestTo(chainlinkOracleAddress(), req, oraclePaymentAmount);\n    }\n\n    function requestResultOfLongitude(string ipAddress) external returns (bytes32 requestId)    // Without onlyOwner\n    {\n        Chainlink.Request memory req = buildChainlinkRequest(jobId_2, this, this.fulfill_longitude.selector);\n        // Using Ipstack - IP geolocation API\n        req.add(\"ip\", ipAddress);\n        req.addInt(\"times\", 1000000000000000);  // To get number which include decimals\n        req.add(\"copyPath\", \"longitude\");\n        requestId = sendChainlinkRequestTo(chainlinkOracleAddress(), req, oraclePaymentAmount);\n    }\n\n    function getFundAmount(bool outcome) external view returns (uint256 fundAmount) \n    {\n        if (outcome) {\n            fundAmount = totalFundIndividual[msg.sender];\n        }\n        \n    }\n\n\n    function fulfill_capital(bytes32 _requestId, bytes32 data)\n    public\n    recordChainlinkFulfillment(_requestId)\n    {\n        resultCapitalReceived = true;\n        //resultReceived = true;\n\n        resultCapital = data;\n        //result = data;\n    }\n\n    function fulfill_latitude(bytes32 _requestId, int256 data)\n    public\n    recordChainlinkFulfillment(_requestId)\n    {\n        resultLatitudeReceived = true;\n        //resultReceived = true;\n\n        resultLatitude = data;\n        //result = data;\n    }\n\n    function fulfill_longitude(bytes32 _requestId, int256 data)\n    public\n    recordChainlinkFulfillment(_requestId)\n    {\n        resultLongitudeReceived = true;\n        //resultReceived = true;\n\n        resultLongitude = data;\n        //result = data;\n    }\n}\n",
  "sourcePath": "/Users/unomasanori/projects/DEMO_MVP/Honeycomb_Hackathon/disaster-risk-insurance/contracts/DisasterRiskInsurance.sol",
  "compiler": {
    "name": "solc",
    "version": "0.4.24+commit.e67f0147.Emscripten.clang"
  },
  "schemaVersion": "3.0.19",
  "updatedAt": "2019-11-30T19:08:54.171Z",
  "networkType": "ethereum",
  "devdoc": {
    "methods": {
      "renounceOwnership()": {
        "details": "Allows the current owner to relinquish control of the contract."
      },
      "transferOwnership(address)": {
        "details": "Allows the current owner to transfer control of the contract to a newOwner.",
        "params": {
          "_newOwner": "The address to transfer ownership to."
        }
      }
    }
  },
  "userdoc": {
    "methods": {
      "renounceOwnership()": {
        "notice": "Renouncing to ownership will leave the contract without an owner. It will not be possible to call the functions with the `onlyOwner` modifier anymore."
      }
    }
  }
}